:020000040800F2
:1000000000500020F53E00089D2400089F240008B1
:10001000A1240008A3240008A52400080000000073
:10002000000000000000000000000000A7240008FD
:10003000A924000800000000AB240008311F0008BC
:100040003D3F00083D3F00083D3F00083D3F0008A0
:100050003D3F00083D3F0008811F0008A51F000824
:100060003D3F00083D3F00083D3F00083D3F000880
:100070003D3F00083D3F00083D3F00083D3F000870
:100080003D3F00083D3F0008AD2400083D3F00080B
:100090003D3F00083D3F00083D3F00083D3F000850
:1000A0003D3F00083D3F00083D3F00083D3F000840
:1000B0003D3F00083D3F00083D3F00083D3F000830
:1000C0003D3F00083D3F00083D3F00083D3F000820
:1000D0003D3F0008BD240008CD2400083D3F000836
:1000E0003D3F00083D3F00083D3F00080000000084
:1000F0000000000000000000000000000000000000
:0C01000000000000000000005FF808F1A3
:1001100081F0004102E000BF83F0004330B54FEAB8
:1001200041044FEA430594EA050F08BF90EA020F25
:100130001FBF54EA000C55EA020C7FEA645C7FEAB8
:10014000655C00F0E2804FEA5454D4EB5555B8BFDB
:100150006D420CDD2C4480EA020281EA030382EA4C
:10016000000083EA010180EA020281EA0303362DDE
:1001700088BF30BD11F0004F4FEA01314FF4801CB1
:100180004CEA113102D0404261EB410113F0004FC3
:100190004FEA03334CEA133302D0524263EB43037A
:1001A00094EA050F00F0A780A4F10104D5F1200E18
:1001B0000DDB02FA0EFC22FA05F2801841F1000173
:1001C00003FA0EF2801843FA05F359410EE0A5F147
:1001D00020050EF1200E012A03FA0EFC28BF4CF078
:1001E000020C43FA05F3C01851EBE37101F000452E
:1001F00007D54FF0000EDCF1000C7EEB00006EEB3B
:100200000101B1F5801F1BD3B1F5001F0CD34908C4
:100210005FEA30004FEA3C0C04F101044FEA44521B
:1002200012F5800F80F09A80BCF1004F08BF5FEAA2
:10023000500C50F1000041EB045141EA050130BD82
:100240005FEA4C0C404141EB0101013C28BFB1F594
:10025000801FE9D291F0000F04BF01460020B1FADF
:1002600081F308BF2033A3F10B03B3F120020CDAB2
:100270000C3208DD02F1140CC2F10C0201FA0CF090
:1002800021FA02F10CE002F11402D8BFC2F1200CF5
:1002900001FA02F120FA0CFCDCBF41EA0C019040AB
:1002A000E41AA2BF01EB0451294330BD6FEA0404F4
:1002B0001F3C1CDA0C340EDC04F11404C4F12002DF
:1002C00020FA04F001FA02F340EA030021FA04F3F1
:1002D00045EA030130BDC4F10C04C4F1200220FA48
:1002E00002F001FA04F340EA0300294630BD21FA86
:1002F00004F0294630BD94F0000F83F4801306BF4C
:1003000081F480110134013D4EE77FEA645C18BF3F
:100310007FEA655C29D094EA050F08BF90EA020FD6
:1003200005D054EA000C04BF1946104630BD91EACE
:10033000030F1EBF0021002030BD5FEA545C05D1D1
:100340004000494128BF41F0004130BD14F5800410
:100350003CBF01F5801130BD01F0004545F0FE4184
:1003600041F470014FF0000030BD7FEA645C1ABFB9
:10037000194610467FEA655C1CBF0B46024650EAF0
:10038000013406BF52EA033591EA030F41F400211C
:1003900030BD00BF90F0000F04BF0021704730B5A2
:1003A0004FF4806404F132044FF000054FF0000177
:1003B00050E700BF90F0000F04BF0021704730B538
:1003C0004FF4806404F1320410F0004548BF40420D
:1003D0004FF000013EE700BF42004FEAE2014FEA62
:1003E00031014FEA02701FBF12F07F4393F07F4F3D
:1003F00081F06051704732F07F4208BF704793F040
:100400007F4F04BF41F40021704730B54FF4607452
:1004100001F0004521F000411CE700BF50EA010255
:1004200008BF704730B54FF000050AE050EA0102FE
:1004300008BF704730B511F0004502D5404261EB6E
:1004400041014FF4806404F132045FEA915C3FF4AF
:10045000D8AE4FF003025FEADC0C18BF03325FEA4C
:10046000DC0C18BF033202EBDC02C2F1200300FAFD
:1004700003FC20FA02F001FA03FE40EA0E0021FA22
:1004800002F11444BDE600BF70B54FF0FF0C4CF410
:10049000E06C1CEA11541DBF1CEA135594EA0C0FC2
:1004A00095EA0C0F00F0DEF82C4481EA030621EAFD
:1004B0004C5123EA4C5350EA013518BF52EA033538
:1004C00041F4801143F4801338D0A0FB02CE4FF0EA
:1004D0000005E1FB02E506F00042E0FB03E54FF01A
:1004E0000006E1FB03569CF0000F18BF4EF0010E12
:1004F000A4F1FF04B6F5007F64F5407404D25FEA0E
:100500004E0E6D4146EB060642EAC62141EA5551C0
:100510004FEAC52040EA5E504FEACE2EB4F1FD0C02
:1005200088BFBCF5E06F1ED8BEF1004F08BF5FEA80
:10053000500E50F1000041EB045170BD06F0004632
:1005400046EA010140EA020081EA0301B4EB5C04DF
:10055000C2BFD4EB0C0541EA045170BD41F48011D7
:100560004FF0000E013C00F3AB8014F1360FDEBFFC
:10057000002001F0004170BDC4F10004203C35DAD8
:100580000C341BDC04F11404C4F1200500FA05F35B
:1005900020FA04F001FA05F240EA020001F00042FC
:1005A00021F0004110EBD37021FA04F642EB060172
:1005B0005EEA430E08BF20EAD37070BDC4F10C049C
:1005C000C4F1200500FA04F320FA05F001FA04F260
:1005D00040EA020001F0004110EBD37041F100014C
:1005E0005EEA430E08BF20EAD37070BDC4F1200557
:1005F00000FA05F24EEA020E20FA04F301FA05F2BF
:1006000043EA020321FA04F001F0004121FA04F266
:1006100020EA020000EBD3705EEA430E08BF20EA36
:10062000D37070BD94F0000F0FD101F00046400070
:1006300041EB010111F4801F08BF013CF7D041EAF2
:10064000060195F0000F18BF704703F000465200F6
:1006500043EB030313F4801F08BF013DF7D043EAC7
:100660000603704794EA0C0F0CEA135518BF95EA7D
:100670000C0F0CD050EA410618BF52EA4306D1D104
:1006800081EA030101F000414FF0000070BD50EA23
:10069000410606BF1046194652EA430619D094EAAD
:1006A0000C0F02D150EA013613D195EA0C0F05D197
:1006B00052EA03361CBF104619460AD181EA0301EB
:1006C00001F0004141F0FE4141F470014FF00000A3
:1006D00070BD41F0FE4141F4780170BD70B54FF03E
:1006E000FF0C4CF4E06C1CEA11541DBF1CEA1355BE
:1006F00094EA0C0F95EA0C0F00F0A7F8A4EB0504A0
:1007000081EA030E52EA03354FEA013100F0888096
:100710004FEA03334FF0805545EA131343EA12635F
:100720004FEA022245EA111545EA10654FEA002614
:100730000EF000419D4208BF964244F1FD0404F5CD
:10074000407402D25B084FEA3202B61A65EB030529
:100750005B084FEA32024FF480104FF4002CB6EBE6
:10076000020E75EB030E22BFB61A754640EA0C0066
:100770005B084FEA3202B6EB020E75EB030E22BFA6
:10078000B61A754640EA5C005B084FEA3202B6EBE7
:10079000020E75EB030E22BFB61A754640EA9C00A6
:1007A0005B084FEA3202B6EB020E75EB030E22BF76
:1007B000B61A754640EADC0055EA060E18D04FEA34
:1007C000051545EA16754FEA06164FEAC30343EAD4
:1007D00052734FEAC2025FEA1C1CC0D111F4801FA1
:1007E0000BD141EA00014FF000004FF0004CB6E79A
:1007F00011F4801F04BF01430020B4F1FD0C88BF39
:10080000BCF5E06F3FF6AFAEB5EB030C04BFB6EB43
:10081000020C5FEA500C50F1000041EB045170BD36
:100820000EF0004E4EEA113114EB5C04C2BFD4EB63
:100830000C0541EA045170BD41F480114FF0000EE7
:10084000013C90E645EA060E8DE60CEA135594EA63
:100850000C0F08BF95EA0C0F3FF43BAF94EA0C0F66
:100860000AD150EA01347FF434AF95EA0C0F7FF4DB
:1008700025AF104619462CE795EA0C0F06D152EA2F
:1008800003353FF4FDAE1046194622E750EA410613
:1008900018BF52EA43067FF4C5AE50EA41047FF424
:1008A0000DAF52EA43057FF4EBAE12E74FF0FF3C89
:1008B00006E000BF4FF0010C02E000BF4FF0010C5A
:1008C0004DF804CD4FEA410C7FEA6C5C4FEA430CD3
:1008D00018BF7FEA6C5C1BD001B050EA410C0CBF22
:1008E00052EA430C91EA030F02BF90EA020F002084
:1008F000704710F1000F91EA030F58BF994208BFEB
:1009000090422CBFD8176FEAE37040F001007047A7
:100910004FEA410C7FEA6C5C02D150EA013C07D1FE
:100920004FEA430C7FEA6C5CD6D152EA033CD3D049
:100930005DF8040B704700BF8446104662468C4643
:100940001946634600E000BF01B5FFF7B7FF002876
:1009500048BF10F1000F01BD4DF808EDFFF7F4FF9F
:100960000CBF012000205DF808FB00BF4DF808ED2A
:10097000FFF7EAFF34BF012000205DF808FB00BF4D
:100980004DF808EDFFF7E0FF94BF012000205DF86F
:1009900008FB00BF4DF808EDFFF7CEFF94BF012024
:1009A00000205DF808FB00BF4DF808EDFFF7C4FF1D
:1009B00034BF012000205DF808FB00BF4FEA410270
:1009C000B2F1E04324BFB3F5001CDCF1FE5C0DD9AD
:1009D00001F0004C4FEAC0024CEA5070B2F1004FF7
:1009E00040EB830008BF20F00100704711F0804FFA
:1009F00021D113F13872BCBF01F00040704741F4BF
:100A000080114FEA5252C2F11802C2F1200C10FAC2
:100A10000CF320FA02F018BF40F001004FEAC123A6
:100A20004FEAD32303FA0CFC40EA0C0023FA02F34A
:100A30004FEA4303CCE77FEA625307D150EA013320
:100A40001EBF4FF0FE4040F44000704701F00040F0
:100A500040F0FE4040F40000704700BF80F00040CE
:100A600002E000BF81F0004142001FBF5FEA410386
:100A700092EA030F7FEA226C7FEA236C6AD04FEA86
:100A80001262D2EB1363C1BFD218414048404140CB
:100A9000B8BF5B42192B88BF704710F0004F40F47D
:100AA000000020F07F4018BF404211F0004F41F499
:100AB000000121F07F4118BF494292EA030F3FD065
:100AC000A2F1010241FA03FC10EB0C00C3F1200378
:100AD00001FA03F100F0004302D5494260EB400007
:100AE000B0F5000F13D3B0F1807F06D340084FEA72
:100AF000310102F10102FE2A51D2B1F1004F40EB67
:100B0000C25008BF20F0010040EA030070474900CE
:100B100040EB0000013A28BFB0F5000FEDD2B0FA6B
:100B200080FCACF1080CB2EB0C0200FA0CF0AABF8E
:100B300000EBC25052421843BCBFD040184370472C
:100B400092F0000F81F4000106BF80F40000013232
:100B5000013BB5E74FEA41037FEA226C18BF7FEA09
:100B6000236C21D092EA030F04D092F0000F08BF4B
:100B70000846704790EA010F1CBF0020704712F032
:100B80007F4F04D1400028BF40F00040704712F171
:100B900000723CBF00F50000704700F0004343F0D6
:100BA000FE4040F4000070477FEA226216BF08460C
:100BB0007FEA23630146420206BF5FEA412390EACF
:100BC000010F40F4800070474FF0000304E000BFC5
:100BD00010F0004348BF40425FEA000C08BF704776
:100BE00043F0964301464FF000001CE050EA01023A
:100BF00008BF70474FF000030AE000BF50EA01024F
:100C000008BF704711F0004302D5404261EB41013B
:100C10005FEA010C02BF84460146002043F0B64360
:100C200008BFA3F18053A3F50003BCFA8CF2083A85
:100C3000A3EBC25310DB01FA02FC634400FA02FC8E
:100C4000C2F12002BCF1004F20FA02F243EB020095
:100C500008BF20F00100704702F1200201FA02FCF7
:100C6000C2F1200250EA4C0021FA02F243EB0200EA
:100C700008BF20EADC7070474FF0FF0C1CEAD0522E
:100C80001EBF1CEAD15392EA0C0F93EA0C0F6FD0EF
:100C90001A4480EA010C400218BF5FEA41211ED0CD
:100CA0004FF0006343EA501043EA5111A0FB0131B9
:100CB0000CF00040B1F5000F3EBF490041EAD3718E
:100CC0005B0040EA010062F17F02FD2A1DD8B3F10A
:100CD000004F40EBC25008BF20F00100704790F079
:100CE000000F0CF0004C08BF49024CEA502040EACB
:100CF00051207F3AC2BFD2F1FF0340EAC250704791
:100D000040F400004FF00003013A5DDC12F1190FCE
:100D1000DCBF00F000407047C2F10002410021FA40
:100D200002F1C2F1200200FA02FC5FEA310040F158
:100D3000000053EA4C0308BF20EADC70704792F0D1
:100D4000000F00F0004C02BF400010F4000F013A09
:100D5000F9D040EA0C0093F0000F01F0004C02BF04
:100D6000490011F4000F013BF9D041EA0C018FE773
:100D70000CEAD15392EA0C0F18BF93EA0C0F0AD079
:100D800030F0004C18BF31F0004CD8D180EA01009F
:100D900000F00040704790F0000F17BF90F0004F38
:100DA000084691F0000F91F0004F14D092EA0C0F1A
:100DB00001D142020FD193EA0C0F03D14B0218BFAD
:100DC000084608D180EA010000F0004040F0FE40F3
:100DD00040F40000704740F0FE4040F4400070478F
:100DE0004FF0FF0C1CEAD0521EBF1CEAD15392EA0E
:100DF0000C0F93EA0C0F69D0A2EB030280EA010CFE
:100E000049024FEA402037D04FF0805343EA111196
:100E100043EA10130CF000408B4238BF5B0042F1F4
:100E20007D024FF4000C8B4224BF5B1A40EA0C0099
:100E3000B3EB510F24BFA3EB510340EA5C00B3EBCB
:100E4000910F24BFA3EB910340EA9C00B3EBD10FB9
:100E500024BFA3EBD10340EADC001B0118BF5FEA0B
:100E60001C1CE0D1FD2A3FF650AF8B4240EBC25034
:100E700008BF20F0010070470CF0004C4CEA5020F5
:100E80007F32C2BFD2F1FF0340EAC250704740F444
:100E900000004FF00003013A37E792F0000F00F036
:100EA000004C02BF400010F4000F013AF9D040EAB4
:100EB0000C0093F0000F01F0004C02BF490011F448
:100EC000000F013BF9D041EA0C0195E70CEAD15340
:100ED00092EA0C0F08D142027FF47DAF93EA0C0F27
:100EE0007FF470AF084676E793EA0C0F04D14B020B
:100EF0003FF44CAF08466EE730F0004C18BF31F0BD
:100F0000004CCAD130F000427FF45CAF31F00043B6
:100F10007FF43CAF5FE700BF4FF0FF3C06E000BF4F
:100F20004FF0010C02E000BF4FF0010C4DF804CD72
:100F30004FEA40024FEA41037FEA226C18BF7FEA82
:100F4000236C11D001B052EA530C18BF90EA010F84
:100F500058BFB2EB030088BFC81738BF6FEAE17013
:100F600018BF40F0010070477FEA226C02D15FEAAF
:100F7000402C05D17FEA236CE4D15FEA412CE1D01B
:100F80005DF8040B704700BF844608466146FFE7E2
:100F90000FB5FFF7C9FF002848BF10F1000F0FBDC4
:100FA0004DF808EDFFF7F4FF0CBF012000205DF8BD
:100FB00008FB00BF4DF808EDFFF7EAFF34BF012042
:100FC00000205DF808FB00BF4DF808EDFFF7E0FFDB
:100FD00094BF012000205DF808FB00BF4DF808ED2C
:100FE000FFF7D2FF94BF012000205DF808FB00BF8F
:100FF0004DF808EDFFF7C8FF34BF012000205DF871
:1010000008FB00BF42000ED2B2F1FE4F0BD34FF0EF
:101010009E03B3EB126209D44FEA002343F000436E
:1010200023FA02F070474FF00000704712F1610F91
:1010300001D1420202D14FF0FF3070474FF0000063
:10104000704700BF10B5054C237833B9044B13B17A
:101050000448AFF300800123237010BD2800002056
:1010600000000000CC3F000808B5034B1BB103494A
:101070000348AFF3008008BD000000002C000020F2
:10108000CC3F0008024B1860024B1960704700BF4C
:10109000000000204400002038B54468084B1D685B
:1010A00029462046FFF7A4FF20B129462046FFF736
:1010B000D9FC0446034B19682046FFF7DDFD38BD17
:1010C000440000200000002010B504460021FFF776
:1010D00067FF28B9A4F50000400800F1005010BDDA
:1010E0000020FCE7024A536803445360704700BF86
:1010F00048000020024B1980024B1860704700BF67
:10110000FC000020E4000020014B00225A607047E0
:101110004800002038B5064C0025A4F89050A4F8EB
:101120008C5002232380FFF7EFFFA4F8905038BDC6
:1011300048000020000000002DE9F04F83B08146F8
:101140008B4692461C4601461046FFF795FD204B04
:10115000986021465046FFF743FE01904D4600241B
:101160002DE029465046FFF73BFE01460198FFF768
:101170007BFCFFF7A9FF80465846FFF72DF912A325
:10118000D3E90023FEF7CAFF06460F464046FFF7A5
:1011900023F932463B46FFF777F9FFF70FFC01468C
:1011A0004846FFF769FDA21C094B03EB8203586018
:1011B00049462846FFF758FC05460134E4B20F2C97
:1011C000CFD903B0BDE8F08F9A9999999999B93F11
:1011D0004800002038B53C4B1B8873B3012B67D106
:1011E0003A4A138801339BB21380002B6BD013460D
:1011F00000221A80344C94F88E306268123304EB6B
:1012000083035A60FFF780FF94F88E300133DBB21E
:1012100084F88E3003F00F0384F88E30B4F89030E9
:10122000002B50D1B4F88C30591CA4F88C10102B22
:1012300049D90122A4F8902045E0234BB3F88C0053
:10124000013080B2A3F88C00214B1B8898423AD918
:10125000FFF7BAFC1C4CC4F898004FF07A51FFF726
:101260000BFD0546C4F898006068FFF7ADFCC4F8B4
:1012700094002946FFF7B4FD0246C4F894002B46BB
:10128000144909684FF07A50FFF756FF2388D3B905
:10129000FFF73AFF012323800023A4F88C30A4F841
:1012A000903084F88F3084F88E30084A13800AE03A
:1012B000054A0023A2F890301380A2F88C30034A2C
:1012C0001380FFF721FF38BD4800002000010020F7
:1012D000FC000020E40000202DE9F04F83B00090D6
:1012E00001910125434B1D800023434A1360434A6B
:1012F00013604FF6FF764FF0000B5F465C460BE045
:101300004FF07E5146E03B4A138801331380760844
:101310006D00ADB20134E4B20F2C60D804F11203B9
:10132000374A02EB83035B681F4416F0010FEAD0D3
:10133000042FE8D93846FFF747FC8146DFF8C4A000
:10134000CAF800002B4B1888FFF742FC01464846BC
:10135000FFF746FD8146CAF80000294BD3F808A0E4
:101360005146FFF745FE0028CDD051464846FFF7CD
:1013700079FB8146234B186004F10208204B03EBF4
:101380008808D8F80400204B1860782FB8D81F4B75
:1013900053F82710FFF770FC80461B4B186001467E
:1013A0004846FFF725FE0028ADD04BEA050B1BF0A1
:1013B000080FA8D0DFF840A0CAF800904146484680
:1013C000FFF70EFD8046CAF800000C4B1968FFF7C6
:1013D0000FFE002897D0094BC3F8008093E7074B16
:1013E0001B68019A1360009BA3F800B003B0BDE82E
:1013F000F08F00BFF4000020E8000020EC00002087
:1014000048000020F8000020F0000020E43F000821
:10141000002303804FF07E530B60154BB3F89030E0
:1014200013B3F0B583B005460C46114B93F88F20EB
:1014300093F88E309A4219D00D4A82F88F300D4EB3
:1014400001A93046FFF748FF3788019E4FF07E51D3
:101450003046FFF7CDFD20B12F802660012003B07C
:10146000F0BD4FF07E56F7E7002070470020F6E70A
:1014700048000020FE00002038B505461446084606
:10148000FFF7A2FB4FF08141FFF7F6FBFFF7BAFD34
:1014900081B22846FFF72EFE204600F073F8FFF7D2
:1014A00039FE38BD10B5044644F62062002300F032
:1014B000ABF8012000F0F4F92046FFF713FEFFF728
:1014C00089FE024B01221A8010BD00BF0A010020D4
:1014D00070B582B004460023ADF80230194D1A4EA3
:1014E0002946304600F07CFA336863602B7823721B
:1014F000164B1B88012B01D002B070BD134B00228C
:101500001A8001A90DF10200FFF782FFA0B1237834
:1015100003F0FD032370BDF802203AB143F001034C
:1015200023700198FFF76EFD6070E5E723F001037B
:10153000237000236370DFE7237843F002032370F6
:10154000DAE700BF08010020040100200A010020A2
:1015500030B40023036000240025C0E902450DE0FB
:101560000C680368234403608368C4688D685B1952
:10157000CD6845EB04048360C46010319142EFD123
:1015800030BC704710B50446084B18600021FFF7C7
:1015900007FD18B1064B00221A6010BD21464FF01E
:1015A0007E50FFF71DFC024B1860F6E7B8030020E1
:1015B000BC03002038B50446114B1D6800212846A5
:1015C000FFF7EEFC48B921462846FFF7F3FC30B19F
:1015D00029462046FFF750FB0446204638BD094BFC
:1015E00019682046FFF748FB01464FF07E50FFF791
:1015F00039FA01462046FFF7F3FB0446EDE700BF4A
:10160000BC030020B803002070B588B00490CDE979
:1016100006230026009600220023CDE902233C4C3D
:1016200022E06D4604F130030FCB85E80F00302235
:10163000214604F1100002F0A7FC0DF1100C9CE80B
:101640000F0084E80F00334B01229A5595E80F00F4
:101650008CE80F0004F140052F4B1B689D421ED8FB
:101660000136072E1FD82C46002EDAD0294B9B5D61
:10167000032BD6D8002BD4D02368049A13442360BC
:10168000069AA368E1689B18079A42EB0102A360DF
:10169000E260204A935D01339355254603E0103301
:1016A0001D4A136025461C4B1C68AC4201D3082E12
:1016B00001D008B070BD174B9B5D013BDBB2022B24
:1016C00011D82B68049A13442B600699AB68E8681C
:1016D0005B18079A42EB0002AB60EA600D4A935D2B
:1016E00001339355E5E77022294605F1100002F019
:1016F0004BFC08AB13E90F0085E80F00054B0122F6
:101700009A55064B9C42D4D01034034B1C60D0E752
:10171000380100202C01002004000020B803002024
:1017200010B504460021FFF73BFC28B9A4F50000E2
:10173000400800F1005010BD0020FCE770B50568BE
:1017400035B3044601EBC101144B1944087AFFF785
:101750003FFA06462846FFF737FA0546FFF7E0FF4F
:1017600001463046FFF788FA064601462846FFF74D
:101770002BFC80B9D4E90201FFF738FA0446314660
:101780002846FFF76FF901462046FFF729FB01E0E5
:101790004FF0BF4070BD4FF0BF40FBE7C8410008AD
:1017A0002DE9F04105460E461446C2F30313D0F866
:1017B00000804146072928BF072103EBC303374AAE
:1017C0001344585CFFF700FA0746B8F1000F3FD109
:1017D0004FF07E51FFF748F90746D5E90201FFF7C0
:1017E00005FA3946FFF7FCFA074621463046FFF76F
:1017F000A5FF3946FFF7DEFB002849D1C4F30313E8
:10180000D6F800804146072928BF072103EBC30310
:10181000224A1344585CFFF7D7F90746B8F1000F86
:1018200026D14FF07E51FFF71FF90746D6E9020196
:10183000FFF7DCF93946FFF7D3FA0646214628467A
:10184000FFF77CFF3146FFF7B5FB20B3012020E016
:101850004046FFF7B9F98046FFF762FF0146384678
:10186000FFF70AFA01464046FFF7FEF80746B4E7DD
:101870004046FFF7A9F98046FFF752FF0146384678
:10188000FFF7FAF901464046FFF7EEF80746CDE7C5
:101890000120BDE8F0810020FBE700BFC84100083F
:1018A0004B4B1A684B4BD31A202B00DC7047F0B51A
:1018B0008DB00646474C04F1200108A8FFF748FE0A
:1018C000324608A92046FFF76BFF90B1424B1B78C8
:1018D0001BB9414B01221A7018E000233E4A1370D5
:1018E0003B4A04F1200111603C4A136053601372BB
:1018F0006CE0394B1B7833B1364B00221A61002063
:101900000021C3E90601344B00221A70314C2269D0
:10191000089B13440893A169E2690A9B5B180B9921
:1019200042EB01020A930B9200230493002200234E
:10193000CDE9062301254034254B1B681B1B102BCA
:1019400044DD082D42D82246A4F130016846FFF755
:10195000FFFD009F2368FA18089B9B1A0893029BBF
:101960000399A268E0689A1841EB0000DDF828C0EE
:10197000BCEB0202DDF82CC06CEB00000A920B906D
:1019800054F8402C1744049A1744049754F8382C00
:1019900054F8340C9B1841EB0001069AD318079AAF
:1019A00041EB020106930791324608A904A8FFF70C
:1019B000F7FE10B940340135BEE7054B1C60C5F198
:1019C000090200210548284402F0F8FA0DB0F0BDE4
:1019D0000400002038010020280100202C010020F4
:1019E0002DE9F04385B007460E46394B1B683B2B6B
:1019F00048D8384B1A6836496846FFF7A9FDDDE933
:101A00000201FEF70BFD02460B46DFF8CC80C8E969
:101A100000232DA3D3E90023FEF736FD04460D462F
:101A2000C8E9004500220023DFF8B0C0CCE900235C
:101A3000DFF8ACC04FF0630E8CF800E0FEF7B4FFA7
:101A400078B3DDF800804046FEF7A4FC02460B4662
:101A5000DFF88890C9E9002322462B46FEF73EFEB8
:101A6000C9E90001B8F1040F18D94046FFF7ACF8F6
:101A7000FFF756FE01461B48FFF7B2F9FFF7C2FA1F
:101A8000C0B20CE0124901F58073124A12689A4202
:101A900028BF1A466846FFF75BFDB0E76320104B8E
:101AA00018700E4DD5E90001FEF788FFFFF782FDA3
:101AB0000446FEF791FCC5E900013C60084B1B7829
:101AC000337005B0BDE8F083000000E0E236EA3E86
:101AD0003801002004000020200100201001002017
:101AE000180100200000484303464FF6FF704A1ECD
:101AF000D2B281B110B413F8011BC4B26140064CDC
:101B000034F8111081EA10201146013AD2B20029AE
:101B1000F1D110BC70477047004200088B5C4370E5
:101B20008B185B788370062B16D0102B28D0032BD4
:101B300000D0704711448A784FF0000362F30F23FE
:101B4000CA7862F3070383800A7962F30F234A7924
:101B500062F30703C380704711448A784FF0000393
:101B600062F30F23CA7862F3070383800A7962F372
:101B70000F234A7962F30703038100230370704740
:101B80001144CA784FF0000362F30F230A7962F31D
:101B9000070383804A7962F30F238A7962F307038C
:101BA000C380CB79C3700B7AC3734B7A83738B7A00
:101BB0004373CB7A037301230370BAE7C1F307239E
:101BC00083540132815470478154531CC1F3072C54
:101BD00000F803C0931CC1F3074C00F803C00332A4
:101BE000C1F30761815470472DE9F04389B00024A7
:101BF00004940594069407943E4B9A6942F01002AF
:101C00009A619A6902F010020092009A9A6942F071
:101C100020029A619A6902F020020192019A9A695F
:101C200042F004029A619A6902F004020292029A56
:101C30009A6942F008029A619B6903F008030393D2
:101C4000039BDFF8B48022464FF40051404601F078
:101C5000D7F92A4F224647F27801384601F0D0F9E9
:101C6000DFF89C9022464FF41061484601F0C8F915
:101C700022464FF40051404601F0C2F94FF40053A0
:101C800004930126059606940225079504A940466B
:101C900001F0A4F8032304931A4B0593069404A9B6
:101CA000384601F09BF847F27803049305960694B2
:101CB000079504A9384601F091F84FF41063049396
:101CC00005960694079504A9484601F087F8224630
:101CD0002146062000F0BAFF062000F0EFFF224662
:101CE0002146072000F0B2FF072000F0E7FF09B00F
:101CF000BDE8F0830010024000100140000C0140DC
:101D0000000801400000111010B5344B1A68344926
:101D10000B8892F800C0334800F803C001339BB22F
:101D20000B80B3F5806F02D30B4600211980137826
:101D3000652B13D02C4B1B781BB12C4B1B78012B24
:101D400017D02A4B1B780A2B1DD9244B284A1A601E
:101D50000023264A1370244A137012E0224B1B788A
:101D6000002BE7D1204B01211970204B0021197065
:101D7000E0E712781F4B1A70E3E71D4A0021D154A7
:101D80000133092BF9DD184B1B781BB1174B1B785E
:101D9000072B12D0114815490B78026812F801CBB5
:101DA000134C04F803C0026001330B7001220B4B8B
:101DB0001968114802F081F810BD0E4B1B78032BF7
:101DC000E8D1064B0A4A1A600023074A1370074AF3
:101DD00013700A4B01221A70E8E700BF10000020C0
:101DE000C8030020CC030020C00300208808002086
:101DF0009C080020C1030020000800209C0900204E
:101E00000378012B00D9704710B542781A4B1A702D
:101E100082785A70C2789A700378A3B94379164CC5
:101E2000E3700379237105212046FFF75DFEC0F3BF
:101E300007236371A0714FF47A73072221460F487C
:101E400001F02FFE10BDC37A0B4CE370837A23712F
:101E5000437A6371037AA37107212046FFF744FE9A
:101E6000C0F30723237260724FF47A73092221466C
:101E7000024801F016FEE5E7C00900200008002036
:101E800010B588B065238DF8003001221F4B1988EA
:101E90006846FFF793FE03221D4B19886846FFF73B
:101EA0008DFE05221B4B19886846FFF787FE072227
:101EB000194B19686846FFF787FE184C0B226168BA
:101EC0006846FFF781FE0F22217A6846FFF776FE0B
:101ED0001122134B19886846FFF770FE1322114B2D
:101EE00019686846FFF770FE17220F4B198868467D
:101EF000FFF764FE0A238DF819304FF47A731A2223
:101F000069460A4801F0CDFD08B010BDB8090020AF
:101F1000BA090020CC070020D0090020AC0900201D
:101F20001400002008000020D40900200008002030
:101F300038B500F00DFB0D4A138801339BB21380B6
:101F4000F92B00D838BD0A4D0A4C2888238818443C
:101F500080B2094B1880FFF7A5FA00232B8023805D
:101F6000064A01211170014A1380EBE7BC090020E9
:101F7000B8090020BA090020CC070020BE090020C3
:101F800008B5064A1388013313804FF40051044802
:101F900001F03CF8012001F043F808BDB809002029
:101FA0000010014008B5064A1388013313804FF42E
:101FB0000051044801F02AF8022001F031F808BD70
:101FC000BA0900200010014072B6FEE700B585B0E6
:101FD00000230193029303931048114A0260836027
:101FE000037303754FF46022C261436001230361F0
:101FF00000F094FD68B907230193012302930023A5
:10200000039301A9054800F003FC20B905B05DF871
:1020100004FBFFF7D9FFFFF7D7FF00BFD007002071
:102020000024014008B50A480A4B03604FF41653D8
:10203000436000238360C36003610C2242618361BB
:10204000C36101F0FFFC00B908BDFFF7BDFF00BF91
:10205000000800200038014000B595B0282200217A
:102060000DEB020001F0AAFF0023059306930793EE
:102070000893099301930293039304930A230A9309
:1020800001230E9310220F921093022311934FF409
:10209000601313930AA800F0E7FFC8B90F23059354
:1020A00002210691002307934FF48062089209935E
:1020B00005A801F017FA68B9022301934FF4004311
:1020C000039301A801F0EAFA30B915B05DF804FBFA
:1020D000FFF77AFFFFF778FFFFF776FFF8B500F01C
:1020E00025FAFFF7B9FFFFF77FFDFFF76FFFFFF757
:1020F00099FF002422463C217148FFF7BDF9214693
:10210000704B1868FEF7BEFF01226F496F4801F05F
:10211000D4FE6F4800F062FC1CE06E4C2046FFF7D6
:10212000D7F92046FEF7B8FF6B4B1860684C0A21C0
:10213000204600F01FFA204600F0DEFAFEF744FDCC
:102140006649FEF74DFEFEF75DFF654B1880654B57
:102150001C7874B9644B1B78002BF8D0634A136861
:1021600001331360B3F57A7FD7DD134600221A607E
:10217000D3E7012220215E4800F042FF5D4D00229E
:1021800051492846FFF7CAFCAB78032B29D000251C
:102190002C4600222021564800F032FF0DB9002CB9
:1021A00072D1D5B1CCB1524C01224021204600F071
:1021B00027FF514D01224FF48071284600F020FF87
:1021C000FFF75EFE00224FF48071284600F018FFF2
:1021D00000224021204600F013FF424B00221A70DB
:1021E000B8E7464B464A12785A7003229A70AB8879
:1021F000072B07D8072B41D8DFE803F009121A4054
:10220000242D4037B3F57F4F3BD12546C1E73B4BEB
:102210004FF47A729A800222DA7000251D70B8E7B6
:10222000364B19229A800222DA7000251D70B0E721
:10223000294B1A68314B9A600422DA7001221A7015
:102240000025A6E72D4B264A12889A800222DA70D2
:1022500000251D709DE7294B4FF07A529A600422A9
:10226000DA7001221A70002593E7244B254A9A6000
:102270000422DA7001221A7000258AE700252C4614
:1022800087E700252C4684E7194E0122402130467D
:1022900000F0B6FE184F01224FF48071384600F06E
:1022A000AFFE1648FFF7ACFD00224FF480713846B0
:1022B00000F0A6FE00224021304600F0A1FE70E7AB
:1022C000CDCC6C40080000209C08002000080020B5
:1022D000D0070020AC090020D009002066664640E7
:1022E000D40900209C090020BE090020C40300205E
:1022F000000C01408C08002000080140A0090020CB
:102300000C0000200000A03F82B00E4B9A6942F002
:1023100001029A619A6902F001020092009ADA6958
:1023200042F08052DA61DB6903F080530193019B34
:10233000054A536823F0E06343F00073536002B032
:10234000704700BF001002400000014000B587B098
:10235000002302930393049305930268154B9A425A
:1023600002D007B05DF804FB03F56C439A6942F4B0
:1023700000729A619A6902F400720092009A9A6956
:1023800042F004029A619B6903F004030193019BEC
:10239000802302930323039302A9074800F01EFD44
:1023A00000221146122000F051FC122000F086FCA1
:1023B000D7E700BF002401400008014030B589B0D4
:1023C0000023049305930693079303682F4A9342CF
:1023D00004D02F4A934233D009B030BD2D4B9A69B7
:1023E00042F480429A619A6902F480420092009A13
:1023F0009A6942F004029A619B6903F00403019315
:10240000019B4FF400730493022305930323079366
:10241000214D04A9284600F0E1FC4FF480630493A9
:1024200000240594069404A9284600F0D7FC22460F
:102430002146252000F00AFC252000F03FFCCBE7D8
:10244000144BDA6942F40032DA61DA6902F40032DC
:102450000292029A9A6942F004029A619B6903F01F
:1024600004030393039B0423049312230593032380
:10247000079304A9084800F0B1FC00221146262069
:1024800000F0E4FB262000F019FCA5E7003801402D
:10249000004400400010024000080140FEE7FEE753
:1024A000FEE7FEE7FEE770477047704708B5024851
:1024B00000F027F908BD00BFD007002008B502488A
:1024C00001F0DEFB08BD00BF0008002008B502488F
:1024D00001F0D6FB08BD00BF440800207047000093
:1024E00010B504460E4B18784FF47A73B3FBF0F333
:1024F0000C4A1068B0FBF3F000F0EEFB68B90F2C4B
:1025000001D901200AE0002221464FF0FF3000F0FF
:102510009DFB054B1C60002000E0012010BD00BFAA
:102520001C000020180000202000002008B5074AE9
:10253000136843F010031360032000F075FB0F20B5
:10254000FFF7CEFFFFF7E0FE002008BD00200240AD
:10255000034A1168034B1B780B441360704700BF9C
:10256000D80900201C000020014B1868704700BFEC
:10257000D8090020F0B583B005460C46002301932E
:10258000FFF7F2FF2B689A6812F4807F23D1074689
:102590005A6812F4807F03D1DB6A13F4700F29D0DC
:1025A000504B1E68022001F005F9B6FBF0F62B68CF
:1025B00019694D4A114236D1D96802F15C42114283
:1025C00031D11969494A114240D1DA68484B1A425F
:1025D0003ED0292041E0AB6A43F02003AB620023E8
:1025E00085F82430012003B0F0BD2B681B6813F080
:1025F000020F0FD02B681B6813F0020F4FD1B4F1FC
:10260000FF3FF7D0002CF0D0FFF7AEFFC31BA34273
:10261000F0D9EAE7AB6A43F00403AB62002385F824
:1026200024300320DFE71969304A114204D1D96808
:1026300002F16E4211420DD019692E4A0A405AB970
:10264000DA682C4B13405BB1FC2006E0292004E043
:10265000142002E0542000E0FC2000FB06F607E016
:102660005420FAE7019BB34210D3019B013301933D
:10267000019BB34213D2B4F1FF3FF6D0002CF1D04E
:10268000FFF772FFC01BA042EFD9EBE7AB6A43F044
:102690000403AB62002385F824300320A3E72B68F2
:1026A0006FF012021A60AB6A43F40073AB622B68DE
:1026B0009B6803F46023B3F5602F01D0002092E7FC
:1026C000287B60B9AB6A23F48073AB62AB6A13F406
:1026D000805F88D1AB6A43F00103AB6283E70020DF
:1026E00081E700BF18000020244992249224491257
:1026F00092244900499224000368D86C70477047BF
:10270000704710B5044603685A6812F0200F18D0BD
:102710001A6812F0020F14D0826A12F0100F03D15F
:10272000826A42F4007282629A6802F46022B2F510
:10273000602F38D02046FFF7E2FF23686FF01202C7
:102740001A6023685A6812F0800F22D01A6812F0BB
:10275000040F1ED0A26A12F0100F03D1A26A42F435
:102760000052A2629A6802F4E042B2F5E04F31D022
:102770005A6812F4806F05D19A6802F46022B2F5AB
:10278000602F24D0204600F04DFA23686FF00C0231
:102790001A6023685A6812F0400F03D01B6813F0C8
:1027A000010F28D110BD227B002AC3D15A6822F024
:1027B00020025A60A36A23F48073A362A36A13F40D
:1027C000805FB7D1A36A43F00103A362B2E7227B23
:1027D000002AD7D15A6822F080025A60A36A23F4F3
:1027E0008053A362A36A13F4807FCBD1A36A43F022
:1027F0000103A362C6E7A36A43F48033A3622046C1
:10280000FFF77EFF23686FF001021A60CAE700003D
:1028100030B482B00022019290F82420012A00F006
:1028200091800346012280F824204A68062A2DD888
:102830000468606B02EB8202053A4FF01F0C0CFA41
:1028400002FC20EA0C000D6805FA02F20243626302
:102850000A68092A3AD91C68E06802EB42021E3A6B
:102860004FF0070C0CFA02FC20EA0C008D6805FA08
:1028700002F20243E2600A68103A012A36D90020C7
:10288000002283F8242002B030BC70470C2A0ED8F6
:102890000568286B02EB8202233A1F24944020EA49
:1028A00004000C6804FA02F202432A63D0E70568C8
:1028B000E86A02EB8202413A1F24944020EA0400B5
:1028C0000C6804FA02F20243EA62C1E71C6820695C
:1028D00002EB42024FF0070C0CFA02FC20EA0C005B
:1028E0008D6805FA02F202432261C4E71A681648AD
:1028F000824205D09A6A42F020029A620120BFE724
:10290000906810F4000F1BD1906840F400009060B4
:102910000A68102A01D00020B2E70C4A12680C495C
:10292000A1FB0212920C02EB82025200019202E021
:10293000019A013A0192019A002AF9D100209FE7F9
:1029400000209DE702209EE700240140180000209F
:1029500083DE1B4330B583B00023019303689A687C
:1029600012F0010F33D104469A6842F001029A60D6
:10297000184B1B68184AA2FB03239B0C019302E02F
:10298000019B013B0193019B002BF9D1FFF7ECFD6B
:10299000054623689B6813F0010F16D1FFF7E4FD8D
:1029A000431B022BF5D923689B6813F0010FF0D16C
:1029B000A36A43F01003A362E36A43F00103E362F6
:1029C000002384F82430012002E0002000E00020F1
:1029D00003B030BD1800002083DE1B4390F8243084
:1029E000012B68D010B50446012380F82430FFF78E
:1029F000B1FF00285BD1A36A23F4407323F00103E5
:102A000043F48073A36223682C4A934227D0A26ABE
:102A100022F48012A2625A6812F4806F05D0A26A72
:102A200022F4405242F48052A262A26A12F4805F01
:102A30002BD0E26A22F00602E262002284F824200F
:102A40006FF002021A6023689A6802F46022B2F5FD
:102A5000602F1DD09A6842F480129A602AE0A2F595
:102A60008062526812F4702FD1D0A26A42F48012B0
:102A7000A262134A526812F4806FD6D0A26A22F47E
:102A8000405242F48052A262CFE70022E262D4E7D1
:102A90000A4A934204D09A6842F4A0029A6009E07C
:102AA000A2F58062526812F4702FD3D1F3E70023AD
:102AB00084F8243010BD0220704700BF0028014078
:102AC0000024014038B503689A6812F0010F01D163
:102AD000002038BD04469A6822F001029A60FFF790
:102AE00043FD054623689B6813F0010F13D0FFF7E1
:102AF0003BFD431B022BF5D923689B6813F0010FA4
:102B0000F0D0A36A43F01003A362E36A43F0010329
:102B1000E3620120DDE70020DBE7000000287BD036
:102B200070B50446836A002B4DD02046FFF7CAFFDC
:102B3000A36A13F0100369D1002867D1A26A22F4B6
:102B4000885222F0020242F00202A2626268E16947
:102B50000A43217B42EA4102A568B5F5807F02D095
:102B6000012D36D01D46267D012E35D02668716890
:102B700021F46941294371602568AE6827493140D5
:102B80001143A960A168B1F5807F01D0012902D16C
:102B90002369013B1B052568E96A21F470010B4399
:102BA000EB62236899681E4B0B409A4225D0A36ABA
:102BB00023F0120343F01003A362E36A43F001031E
:102BC000E362012027E0C36280F82430FFF7BEFBF8
:102BD000ABE74FF48075C6E731B9A169013945EA21
:102BE000413141F40065C1E7A16A41F02001A162D1
:102BF000E16A41F00101E162B8E70023E362A36A00
:102C000023F0030343F00103A36204E0A36A43F04B
:102C10001003A362012070BD01207047FDF7E1FFA2
:102C2000FE0E1FFF70470000074AD36823F4E063DD
:102C30001B041B0C000200F4E060034343F0BF637D
:102C400043F40033D360704700ED00E000B5194B4A
:102C5000DB68C3F30223C3F1070CBCF1040F28BFE8
:102C60004FF0040C03F1040EBEF1060F18D9033B1C
:102C70004FF0FF3E0EFA0CFC21EA0C0199400EFACF
:102C800003F322EA0303194300280BDB0901C9B24D
:102C900000F1604000F5614080F800135DF804FB2E
:102CA0000023E5E700F00F000901C9B2024B1954F7
:102CB000F4E700BF00ED00E014ED00E0002807DBC2
:102CC00000F01F02400901239340024A42F82030DD
:102CD000704700BF00E100E00138B0F1807F0BD207
:102CE0004FF0E0235861054AF02182F823100020BC
:102CF000986107221A6170470120704700ED00E0DB
:102D000090F82130022B06D004238363002380F83F
:102D10002030012070470268136823F00E0313600F
:102D20000268136823F001031360036CC16B012276
:102D300002FA03F34B6080F82120002380F8203052
:102D40001846704708B590F82130022B03D00423B1
:102D50008363012008BD0268136823F00E0313602B
:102D60000268136823F0010313600368194A934251
:102D700014D0143293421FD0143293421ED0143216
:102D800093421ED0143293421ED01432934202D08A
:102D90004FF0807203E04FF4801200E001220E4BEE
:102DA0005A60012380F82130002380F82030436BE3
:102DB0006BB198470020CDE71022F0E74FF4807206
:102DC000EDE74FF48052EAE74FF48032E7E7002066
:102DD000C0E700BF080002400000024070B582B0AA
:102DE0000024A446A6E0804DAA4210D007D97F4D0A
:102DF000AA420CD005F58035AA4208D013E0A5F50B
:102E00008015AA4203D005F57025AA4207D18A6829
:102E1000002A58D0012A51D04361082403E0A5F5C7
:102E20008015AA42F3D0BEF1FF0F4ED80646BEF180
:102E3000FF0F4CD84FEA8C0233680F25954023EAE8
:102E4000050304FA02F2134333604B6813F0805F0A
:102E50006ED0674B9A6942F001029A619B6903F058
:102E600001030193019B4FEA9C02951C614B53F8AF
:102E700025600CF003039D000F23AB4026EA0306F8
:102E80005D4B984229D003F58063984200F08E8014
:102E900003F58063984200F08B8003F580639842CD
:102EA00019D004231AE0CC68BDE7CC680434BAE733
:102EB000CC680834B7E7CC680C34B4E70361082465
:102EC000B1E70024AFE70424ADE7061DAFE7ACF19E
:102ED00008029200B0E7032300E00023AB40334335
:102EE0000232444D45F822304B6813F4803F61D0E4
:102EF000424A136843EA0E0313604B6813F4003F21
:102F00005ED03E4A536843EA0E0353604B6813F4A5
:102F1000801F5BD0394A936843EA0E0393604B6885
:102F200013F4001F58D0354AD36843EA0E03D36028
:102F30000CF1010C0A6832FA0CF353D0012303FAA6
:102F40000CF302EA030E33EA0202F1D14A68122AB4
:102F50003FF649AF122A3FF666AF01A555F822F0B9
:102F60000F2E0008A72E0008B12E0008C32E00085F
:102F7000272E0008272E0008272E0008272E0008DD
:102F8000272E0008272E0008272E0008272E0008CD
:102F9000272E0008272E0008272E0008272E0008BD
:102FA000272E0008AB2E0008B72E0008012395E756
:102FB000022393E7114A136823EA0E0313609CE788
:102FC0000E4A536823EA0E0353609FE70B4A936847
:102FD00023EA0E039360A2E7084AD36823EA0E03AC
:102FE000D360A5E702B070BD0000221000003110D0
:102FF00000100240000001400008014000040140B0
:103000000AB101617047090401617047C36801EAB0
:10301000030221EA030141EA02410161704770475E
:1030200008B5054B5B69034200D108BD024B5861EE
:10303000FFF7F5FFF9E700BF0004014082B0084B3D
:103040001B68084AA2FB03235B0A00FB03F30193FE
:1030500000BF019B5A1E0192002BF9D102B07047AC
:1030600018000020D34D6210002800F0F18170B5E7
:1030700082B00446036813F0010F2CD0994B5B68B3
:1030800003F00C03042B1DD0964B5B6803F00C037C
:10309000082B12D06368B3F5803F41D0002B55D187
:1030A00003F1804303F504331A6822F480321A6076
:1030B0001A6822F480221A6037E08A4B5B6813F4A6
:1030C000803FE7D0874B1B6813F4003F03D0636851
:1030D000002B00F0BF81236813F0020F75D0814BE5
:1030E0005B6813F00C0F5FD07E4B5B6803F00C0342
:1030F000082B54D02369002B00F08A807A4B0122E0
:103100001A60FFF731FA0546764B1B6813F0020F81
:1031100075D1FFF729FA401B0228F5D903209EE15B
:10312000704A136843F480331360636843B3FFF756
:103130001BFA05466B4B1B6813F4003FCBD1FFF71E
:1031400013FA401B6428F5D9032088E1B3F5A02FBA
:1031500009D0644B1A6822F480321A601A6822F48B
:1031600080221A60E1E703F18043A3F53C331A683B
:1031700042F480221A601A6842F480321A60D4E75E
:10318000FFF7F2F90546574B1B6813F4003FA2D036
:10319000FFF7EAF9401B6428F5D903205FE1514BA2
:1031A0005B6813F4803FA5D14E4B1B6813F0020FF0
:1031B00003D02369012B40F04F814A4A136823F062
:1031C000F803616943EAC1031360236813F0080F31
:1031D00033D0A369002B5CD0434B0122C3F8802479
:1031E000FFF7C2F905463F4B5B6A13F0020F21D18E
:1031F000FFF7BAF9401B0228F5D903202FE1394A1D
:10320000136823F0F803616943EAC1031360DCE744
:10321000354B00221A60FFF7A7F90546314B1B68B2
:1032200013F0020FD1D0FFF79FF9401B0228F5D908
:10323000032014E10120FFF701FF236813F0040FBE
:1032400000F09680274BDB6913F0805F34D1254B6B
:10325000DA6942F08052DA61DB6903F0805301934E
:10326000019B0125214B1B6813F4807F26D0E36866
:10327000012B3DD0002B53D103F1804303F50433E0
:103280001A6A22F001021A621A6A22F004021A6211
:1032900033E0154B0022C3F88024FFF765F905469B
:1032A000104B5B6A13F0020FC7D0FFF75DF9401BAC
:1032B0000228F5D90320D2E00025D3E70B4A136892
:1032C00043F480731360FFF74FF90646074B1B6802
:1032D00013F4807FCBD1FFF747F9801B6428F5D921
:1032E0000320BCE000100240000042420070004099
:1032F0005F4A136A43F001031362E36833B3FFF7D5
:1033000033F906465A4B1B6A13F0020F2FD1FFF711
:103310002BF9801B41F288339842F3D903209EE0B9
:10332000052B09D0524B1A6A22F001021A621A6A5E
:1033300022F004021A62E0E74D4B1A6A42F00402DE
:103340001A621A6A42F001021A62D6E7FFF70CF914
:103350000646474B1B6A13F0020F08D0FFF704F92B
:10336000801B41F288339842F3D9032077E0E5B916
:10337000E369002B72D03E4A526802F00C02082A20
:1033800056D0022B17D03B4B00221A66FFF7ECF801
:103390000446374B1B6813F0007F47D0FFF7E4F873
:1033A000001B0228F5D9032059E0314AD36923F0E4
:1033B0008053D361DCE72F4B00221A66FFF7D4F865
:1033C00005462B4B1B6813F0007F06D0FFF7CCF8A7
:1033D000401B0228F5D9032041E0236AB3F5803F62
:1033E0001AD023494B6823F47413226A606A02439B
:1033F00013434B601F4B01221A66FFF7B5F80446D2
:103400001B4B1B6813F0007F0ED1FFF7ADF8001BBC
:103410000228F5D9032022E0154A536823F400332B
:10342000A1680B435360DCE7002018E0002016E0A1
:10343000012B16D00E4B5B6803F48031226A914257
:1034400011D103F47013626A93420ED1002006E09A
:1034500001207047012002E0012000E0002002B0BE
:1034600070BD0120FBE70120F9E70120F7E700BF6D
:10347000001002400000424286B0164B0FCB0DF107
:10348000180C0CE90F0040F20123ADF80430124B88
:103490005B6803F00C02082A02D0104806B070479F
:1034A000C3F38342624412F8100C13F4803F0CD033
:1034B000094B5B68C3F34043634413F8143C074A69
:1034C00002FB00F0B0FBF3F0E8E7054B03FB00F074
:1034D000E4E700BF184400080010024000127A0020
:1034E00000093D00002800F0A08070B50D4604469C
:1034F000524B1B6803F007038B420BD24F4A1368F1
:1035000023F007030B431360136803F007038B4298
:1035100040F08D80236813F0020F17D013F0040FD2
:1035200004D0474A536843F4E0635360236813F0C0
:10353000080F04D0424A536843F460535360404A32
:10354000536823F0F003A1680B435360236813F022
:10355000010F31D06368012B20D0022B25D0384ACF
:10356000126812F0020F64D035494A6822F0030253
:1035700013434B60FEF7F8FF0646314B5B6803F0E0
:103580000C036268B3EB820F16D0FEF7EDFF801BD1
:1035900041F288339842F0D9032045E0284A126866
:1035A00012F4003FE0D101203EE0254A126812F0FB
:1035B000007FD9D1012037E0204B1B6803F00703BF
:1035C000AB420AD91D4A136823F007032B4313604B
:1035D000136803F00703AB422DD1236813F0040FE7
:1035E00006D0174A536823F4E063E1680B43536045
:1035F000236813F0080F07D0114A536823F460536F
:10360000216943EAC1035360FFF736FF0C4B5B6847
:10361000C3F303130B4AD35CD8400B4B18600B4B1E
:103620001868FEF75DFF002070BD01207047012083
:10363000FAE70120F8E70120F6E700BF002002408A
:103640000010024000440008180000202000002064
:10365000014B1868704700BF1800002008B5FFF73D
:10366000F7FF044B5B68C3F30223034AD35CD840E3
:1036700008BD00BF001002401044000808B5FFF765
:10368000E7FF044B5B68C3F3C223034AD35CD84013
:1036900008BD00BF001002401044000870B582B0A1
:1036A0000446036813F0010F36D03F4BDB6913F07B
:1036B000805F49D13C4BDA6942F08052DA61DB69C4
:1036C00003F080530193019B0125384B1B6813F4D1
:1036D000807F3BD0344B1B6A13F4407313D0626875
:1036E00002F440729A420ED02F4A136A23F44070BB
:1036F0002F490126C1F840640026C1F840641062D9
:1037000013F0010F36D1284A136A23F4407361681D
:103710000B431362002D3ED1236813F0020F06D035
:10372000214A536823F44043A1680B435360236844
:1037300013F0100F34D01C4A536823F48003E1685F
:103740000B43536000202CE00025BEE7174A1368A6
:1037500043F480731360FEF707FF0646134B1B68A4
:1037600013F4807FB6D1FEF7FFFE801B6428F5D9E5
:10377000032016E0FEF7F8FE06460B4B1B6A13F01B
:10378000020FC0D1FEF7F0FE801B41F28833984251
:10379000F3D9032005E0D36923F08053D361BBE75D
:1037A000002002B070BD00BF001002400070004059
:1037B0000000424200B587B08446384B0FCB0DF174
:1037C000180E0EE90F0040F20123ADF80430BCF1F1
:1037D000020F55D0BCF1100F06D0BCF1010F2DD057
:1037E000002007B05DF804FB2D4B5A68186810F0F4
:1037F0008070F6D0C2F3834306A90B4413F8100C73
:1038000012F4803F16D0264B5B68C3F340430B4451
:1038100013F8142C234BB3FBF2F303FB00F0204B03
:103820005B6813F4800FDCD140001F4BA3FB00301A
:103830004008D6E71D4B03FB00F0F0E7184B1B6A6E
:1038400040F202321A40B2F5817F24D003F4407373
:10385000B3F5007F04D0B3F5407F09D00020C0E766
:103860000F4A526A12F0020FF5D049F64040B8E70D
:103870000B4B186810F40030B3D04FF22440B0E77F
:10388000FFF7FCFE064B5B68C3F3813301335B003B
:10389000B0FBF3F0A5E74FF40040A2E7184400089E
:1038A0000010024000127A00ABAAAAAA00093D004B
:1038B0000268D36823F49073D3600268536923F0DD
:1038C00001035361036B012B05D0202380F83E30A8
:1038D0000023036370470268D36823F01003D360AA
:1038E000F3E790F83D30DBB2212B01D00220704786
:1038F0008368B3F5805F17D0036A5A1C02621A7896
:1039000003685A60C38C9BB2013B9BB2C3844BB922
:103910000268D36823F08003D3600268D36843F061
:103920004003D360002070470369002BE4D1036A91
:103930001B880268C3F308035360036A02330362FF
:10394000E0E7000010B504460268136923F4405311
:10395000C1680B43136183680269134342691A43C8
:103960000168CB6823F4B05323F00C031343CB60FE
:103970000268536923F4407381690B435361026801
:10398000134B9A4220D0FFF769FE024602EB8202F7
:1039900002EB820263689B00B2FBF3F20D48A0FBCE
:1039A00002314909642303FB11231B013233A0FBBD
:1039B00003235B0903F0F00202EB011203F00F0393
:1039C000216813448B6010BDFFF758FE0246DDE707
:1039D000003801401F85EB512DE9F84305460F469D
:1039E00016469946DDF820802C68246837EA0403DF
:1039F0000CBF4FF0010C4FF0000CB4451FD1B8F1D3
:103A0000FF3FF1D0B8F1000F05D0FEF7ADFDA0EB00
:103A100009004045E8D92A68D36823F4D073D360FD
:103A20002A68536923F001035361202385F83D3050
:103A300085F83E30002385F83C30032000E000206C
:103A4000BDE8F88358B310B5044690F83D300BB389
:103A5000242384F83D302268D36823F40053D360D4
:103A60002046FFF76FFF2268136923F49043136128
:103A70002268536923F02A0353612268D36843F410
:103A80000053D36000202064202384F83D3084F864
:103A90003E3010BD80F83C30FEF790FCD8E70120A6
:103AA00070472DE9F04182B01E4690F83D30DBB200
:103AB000202B54D104460D469046002953D0002AAD
:103AC00053D090F83C30012B51D0012380F83C308A
:103AD00000230364212380F83D30FEF745FD0746AF
:103AE000A4F82480A4F82680A368B3F5805F05D0ED
:103AF0004FF00008002384F83C3012E0236913B132
:103B00004FF00008F6E7A8460025F3E738F8023B37
:103B10002268C3F308035360E28C92B2013A92B276
:103B2000E284E38C9BB273B100963B460022802175
:103B30002046FFF751FFE0B9002DE7D015F8012B23
:103B400023685A60E8E700963B4600224021204661
:103B5000FFF742FF78B9202384F83D3000E00220CF
:103B600002B0BDE8F0810120FAE70120F8E7022069
:103B7000F6E70320F4E70320F2E7704708B5016891
:103B8000CA6822F04002CA60202280F83D20FFF778
:103B9000F4FF002008BD704708B5406A0023C385C4
:103BA000C384FFF7F8FF08BD704790F83E30DBB2E2
:103BB000222B60D18368B3F5805F46D0826AB3F56B
:103BC000805F04D0002B4DD10369002B4AD10368DC
:103BD0005B681370836A01338362C38D9BB2013BC0
:103BE0009BB2C385002B48D100B583B00268D3686F
:103BF00023F02003D3600268D36823F48073D3607A
:103C00000268536923F001035361202380F83E309A
:103C1000036B012B2CD1002303630268D36823F0CC
:103C20001003D36003681A6812F0100F06D0002248
:103C300001921A6801925B680193019B818DFFF7E5
:103C4000B3FF002003B05DF804FB0269002AB5D180
:103C5000826A03685B68C3F308031380836A0233D4
:103C60008362BAE703685B6803F07F031370B1E710
:103C7000FEF74AF8E5E70220704700207047000091
:103C800030B583B0044602681368D068516913F0F8
:103C90000F0505D113F0200F02D010F0200F19D11D
:103CA0002DB111F0010119D110F4907F16D1216BC3
:103CB000012975D013F0800F03D010F0800F40F071
:103CC000D78013F0400F03D010F0400F40F0D480A5
:103CD00003B030BD2046FFF768FFF9E713F0010F8E
:103CE00006D010F4807F03D0226C42F001022264DF
:103CF00013F0040F04D019B1226C42F002022264C6
:103D000013F0020F04D019B1226C42F004022264B5
:103D100013F0080F07D010F0200F00D119B1226C5A
:103D200042F008022264226C002AD1D013F0200F46
:103D300002D010F0200F21D123685B6903F040030B
:103D4000226C12F0080F00D123B32046FFF7B0FD1C
:103D500023685A6912F0400F18D05A6922F04002C5
:103D60005A61A36B73B1464A5A63A06BFEF7EAFF30
:103D70000028ADD0A06B436B9847A9E72046FFF71A
:103D800014FFD9E72046FFF706FFA1E72046FFF71B
:103D900002FF9DE72046FFF7FEFE0023236497E71E
:103DA00013F0100F86D010F0100F83D00023019372
:103DB0001368019353680193019B536913F0400FFB
:103DC00032D0A16B0B685B689BB2002B80D0A08DBA
:103DD00098427FF67DAFE3858B69202B08D1A18DBA
:103DE000E38D9BB2C91A89B22046FFF7DDFE6FE76B
:103DF000D36823F48073D3602268536923F00103EE
:103E000053612268536923F040035361202384F8EF
:103E10003E30002323632268D36823F01003D3606D
:103E2000A06BFEF76DFFDAE7A18DE38D9BB2C91A97
:103E300089B2E38D9BB2002B3FF44AAF00293FF4D7
:103E400047AFD36823F49073D3602268536923F09B
:103E500001035361202384F83E300023236322684A
:103E6000D36823F01003D3602046FFF79DFE2FE7B1
:103E70002046FFF736FD2BE72046FFF77FFE27E7BA
:103E8000993B0008034681628285C2850020186440
:103E9000222283F83E2083F83C001968CA6842F465
:103EA0008072CA6019684A6942F001024A611A6860
:103EB000D36843F02003D360704708B590F83E30D4
:103EC000DBB2202B0DD171B17AB190F83C30012BCF
:103ED0000DD0012380F83C3000230363FFF7D2FFAD
:103EE00000E0022008BD0120FCE70120FAE70220E3
:103EF000F8E700000C480D490D4A002302E0D458B1
:103F0000C4500433C4188C42F9D30A4A0A4C002323
:103F100001E013600432A242FBD3FEF7DFFA00F0A7
:103F20000FF8FEF7DBF870470000002024000020A7
:103F30003444000828000020DC090020FEE70000CF
:103F400070B500260C4D0D4C641BA410A64209D17F
:103F500000F03CF800260A4D0A4C641BA410A6424F
:103F600005D170BD55F8043B98470136EEE755F88A
:103F7000043B98470136F2E72C4400082C44000823
:103F80002C44000830440008884210B501EB0204BC
:103F900002D98442234607D8431EA14208D011F813
:103FA000012B03F8012FF8E7014602448A4200D1B1
:103FB00010BD13F8014D02F8014DF7E70346024426
:103FC000934200D1704703F8011BF9E7F8B500BF31
:103FD000F8BC08BC9E467047F8B500BFF8BC08BCEA
:043FE0009E46704742
:103FE400984C4B41B8AF894071AC4B408AB03140DA
:103FF400B6842440029A1C409B5517408195134077
:10400400E3C7104031990E402FDD0C4076710B4010
:10401400FE430A4067440940DC68084071AC07402D
:10402400F706074025750640B6F3054006810540AE
:104034002B180540C7BA044095650440F0160440A7
:10404400D9CE0340508D0340B1500340FC180340C7
:104054008FE402400BB5024029ED014029ED0140F7
:1040640029ED014029ED014029ED014029ED0140F0
:1040740029ED014029ED014029ED0140B4590140E9
:10408400B4590140B4590140B4590140B4590140F4
:1040940004E7004004E7004004E7004004E7004070
:1040A40004E70040E78C0040E78C0040E78C0040C8
:1040B400E78C0040E78C0040894100408941004082
:1040C400894100408941004089410040EA040040A0
:1040D400EA040040EA040040EA040040EA04004024
:1040E400EA040040EA040040EA040040EA04004014
:1040F400EA0400408048FF3F8048FF3F8048FF3F7C
:104104008048FF3F8048FF3F8048FF3F8048FF3F93
:104114008048FF3F8048FF3F8048FF3F99BBFE3FF8
:1041240099BBFE3F99BBFE3F99BBFE3F99BBFE3F47
:1041340099BBFE3F99BBFE3F99BBFE3F99BBFE3F37
:1041440099BBFE3F304CFE3F304CFE3F304CFE3FAF
:10415400304CFE3F304CFE3F304CFE3F304CFE3F77
:10416400304CFE3F304CFE3F304CFE3FB6F3FD3F3B
:10417400B6F3FD3FB6F3FD3FB6F3FD3FB6F3FD3FA7
:10418400B6F3FD3FB6F3FD3FB6F3FD3FB6F3FD3F97
:10419400B6F3FD3F9FABFD3F9FABFD3F9FABFD3FA4
:1041A4009FABFD3F9FABFD3F9FABFD3F9FABFD3FF3
:1041B4009FABFD3F9FABFD3F9FABFD3F5D6DFD3F63
:1041C4000000803F060505040404040402070605F4
:1041D400050404040403080706050404040403098D
:1041E4000807060504040404090807060504040472
:1041F400040A090807060505050500000000C1C0FA
:1042040081C1400101C3C003800241C201C6C0068E
:10421400800741C70005C1C581C4400401CCC00C5E
:10422400800D41CD000FC1CF81CE400E000AC1CA1E
:1042340081CB400B01C9C009800841C801D8C0180E
:10424400801941D9001BC1DB81DA401A001EC1DE8E
:1042540081DF401F01DDC01D801C41DC0014C1D47E
:1042640081D5401501D7C017801641D601D2C0129E
:10427400801341D30011C1D181D0401001F0C0306E
:10428400803141F10033C1F381F240320036C1F68E
:1042940081F7403701F5C035803441F4003CC1FC5E
:1042A40081FD403D01FFC03F803E41FE01FAC03A1E
:1042B400803B41FB0039C1F981F840380028C1E84E
:1042C40081E9402901EBC02B802A41EA01EEC02E8E
:1042D400802F41EF002DC1ED81EC402C01E4C0247E
:1042E400802541E50027C1E781E640260022C1E29E
:1042F40081E3402301E1C021802041E001A0C060AE
:10430400806141A10063C1A381A240620066C1A68D
:1043140081A7406701A5C065806441A4006CC1AC5D
:1043240081AD406D01AFC06F806E41AE01AAC06A1D
:10433400806B41AB0069C1A981A840680078C1B80D
:1043440081B9407901BBC07B807A41BA01BEC07E8D
:10435400807F41BF007DC1BD81BC407C01B4C0747D
:10436400807541B50077C1B781B640760072C1B29D
:1043740081B3407301B1C071807041B00050C190ED
:10438400819140510193C053805241920196C0568D
:10439400805741970055C19581944054019CC05C5D
:1043A400805D419D005FC19F819E405E005AC19A1D
:1043B400819B405B0199C059805841980188C0484D
:1043C40080494189004BC18B818A404A004EC18E8D
:1043D400818F404F018DC04D804C418C0044C1847D
:1043E400818540450187C047804641860182C0429D
:1043F400804341830041C18181804040000000002E
:104404000000000001020304060708090000000080
:104414000102030402030405060708090A0B0C0D34
:084424000E0F10100000000053
:04442C00691000080B
:04443000451000082B
:104434006FD8B63A38010020A69B443C65000000C2
:104444009C080020190000000024F4000100000072
:044454001000000054
:0400000508003EF5BC
:00000001FF
