:020000040800F2
:1000000000500020ED370008BD240008BF24000880
:10001000C1240008C3240008C52400080000000013
:10002000000000000000000000000000C7240008DD
:10003000C924000800000000CB24000801210008AA
:1000400035380008353800083538000835380008DC
:1000500035380008353800083D21000855210008D2
:1000600035380008353800083538000835380008BC
:1000700035380008353800083538000835380008AC
:100080003538000835380008CD2400083538000818
:10009000353800083538000835380008353800088C
:1000A000353800083538000835380008353800087C
:1000B000353800083538000835380008353800086C
:1000C000353800083538000835380008353800085C
:1000D00035380008DD240008ED2400083538000814
:1000E00035380008353800083538000800000000B1
:1000F0000000000000000000000000000000000000
:0C01000000000000000000005FF808F1A3
:1001100081F0004102E000BF83F0004330B54FEAB8
:1001200041044FEA430594EA050F08BF90EA020F25
:100130001FBF54EA000C55EA020C7FEA645C7FEAB8
:10014000655C00F0E2804FEA5454D4EB5555B8BFDB
:100150006D420CDD2C4480EA020281EA030382EA4C
:10016000000083EA010180EA020281EA0303362DDE
:1001700088BF30BD11F0004F4FEA01314FF4801CB1
:100180004CEA113102D0404261EB410113F0004FC3
:100190004FEA03334CEA133302D0524263EB43037A
:1001A00094EA050F00F0A780A4F10104D5F1200E18
:1001B0000DDB02FA0EFC22FA05F2801841F1000173
:1001C00003FA0EF2801843FA05F359410EE0A5F147
:1001D00020050EF1200E012A03FA0EFC28BF4CF078
:1001E000020C43FA05F3C01851EBE37101F000452E
:1001F00007D54FF0000EDCF1000C7EEB00006EEB3B
:100200000101B1F5801F1BD3B1F5001F0CD34908C4
:100210005FEA30004FEA3C0C04F101044FEA44521B
:1002200012F5800F80F09A80BCF1004F08BF5FEAA2
:10023000500C50F1000041EB045141EA050130BD82
:100240005FEA4C0C404141EB0101013C28BFB1F594
:10025000801FE9D291F0000F04BF01460020B1FADF
:1002600081F308BF2033A3F10B03B3F120020CDAB2
:100270000C3208DD02F1140CC2F10C0201FA0CF090
:1002800021FA02F10CE002F11402D8BFC2F1200CF5
:1002900001FA02F120FA0CFCDCBF41EA0C019040AB
:1002A000E41AA2BF01EB0451294330BD6FEA0404F4
:1002B0001F3C1CDA0C340EDC04F11404C4F12002DF
:1002C00020FA04F001FA02F340EA030021FA04F3F1
:1002D00045EA030130BDC4F10C04C4F1200220FA48
:1002E00002F001FA04F340EA0300294630BD21FA86
:1002F00004F0294630BD94F0000F83F4801306BF4C
:1003000081F480110134013D4EE77FEA645C18BF3F
:100310007FEA655C29D094EA050F08BF90EA020FD6
:1003200005D054EA000C04BF1946104630BD91EACE
:10033000030F1EBF0021002030BD5FEA545C05D1D1
:100340004000494128BF41F0004130BD14F5800410
:100350003CBF01F5801130BD01F0004545F0FE4184
:1003600041F470014FF0000030BD7FEA645C1ABFB9
:10037000194610467FEA655C1CBF0B46024650EAF0
:10038000013406BF52EA033591EA030F41F400211C
:1003900030BD00BF90F0000F04BF0021704730B5A2
:1003A0004FF4806404F132044FF000054FF0000177
:1003B00050E700BF90F0000F04BF0021704730B538
:1003C0004FF4806404F1320410F0004548BF40420D
:1003D0004FF000013EE700BF42004FEAE2014FEA62
:1003E00031014FEA02701FBF12F07F4393F07F4F3D
:1003F00081F06051704732F07F4208BF704793F040
:100400007F4F04BF41F40021704730B54FF4607452
:1004100001F0004521F000411CE700BF50EA010255
:1004200008BF704730B54FF000050AE050EA0102FE
:1004300008BF704730B511F0004502D5404261EB6E
:1004400041014FF4806404F132045FEA915C3FF4AF
:10045000D8AE4FF003025FEADC0C18BF03325FEA4C
:10046000DC0C18BF033202EBDC02C2F1200300FAFD
:1004700003FC20FA02F001FA03FE40EA0E0021FA22
:1004800002F11444BDE600BF70B54FF0FF0C4CF410
:10049000E06C1CEA11541DBF1CEA135594EA0C0FC2
:1004A00095EA0C0F00F0DEF82C4481EA030621EAFD
:1004B0004C5123EA4C5350EA013518BF52EA033538
:1004C00041F4801143F4801338D0A0FB02CE4FF0EA
:1004D0000005E1FB02E506F00042E0FB03E54FF01A
:1004E0000006E1FB03569CF0000F18BF4EF0010E12
:1004F000A4F1FF04B6F5007F64F5407404D25FEA0E
:100500004E0E6D4146EB060642EAC62141EA5551C0
:100510004FEAC52040EA5E504FEACE2EB4F1FD0C02
:1005200088BFBCF5E06F1ED8BEF1004F08BF5FEA80
:10053000500E50F1000041EB045170BD06F0004632
:1005400046EA010140EA020081EA0301B4EB5C04DF
:10055000C2BFD4EB0C0541EA045170BD41F48011D7
:100560004FF0000E013C00F3AB8014F1360FDEBFFC
:10057000002001F0004170BDC4F10004203C35DAD8
:100580000C341BDC04F11404C4F1200500FA05F35B
:1005900020FA04F001FA05F240EA020001F00042FC
:1005A00021F0004110EBD37021FA04F642EB060172
:1005B0005EEA430E08BF20EAD37070BDC4F10C049C
:1005C000C4F1200500FA04F320FA05F001FA04F260
:1005D00040EA020001F0004110EBD37041F100014C
:1005E0005EEA430E08BF20EAD37070BDC4F1200557
:1005F00000FA05F24EEA020E20FA04F301FA05F2BF
:1006000043EA020321FA04F001F0004121FA04F266
:1006100020EA020000EBD3705EEA430E08BF20EA36
:10062000D37070BD94F0000F0FD101F00046400070
:1006300041EB010111F4801F08BF013CF7D041EAF2
:10064000060195F0000F18BF704703F000465200F6
:1006500043EB030313F4801F08BF013DF7D043EAC7
:100660000603704794EA0C0F0CEA135518BF95EA7D
:100670000C0F0CD050EA410618BF52EA4306D1D104
:1006800081EA030101F000414FF0000070BD50EA23
:10069000410606BF1046194652EA430619D094EAAD
:1006A0000C0F02D150EA013613D195EA0C0F05D197
:1006B00052EA03361CBF104619460AD181EA0301EB
:1006C00001F0004141F0FE4141F470014FF00000A3
:1006D00070BD41F0FE4141F4780170BD70B54FF03E
:1006E000FF0C4CF4E06C1CEA11541DBF1CEA1355BE
:1006F00094EA0C0F95EA0C0F00F0A7F8A4EB0504A0
:1007000081EA030E52EA03354FEA013100F0888096
:100710004FEA03334FF0805545EA131343EA12635F
:100720004FEA022245EA111545EA10654FEA002614
:100730000EF000419D4208BF964244F1FD0404F5CD
:10074000407402D25B084FEA3202B61A65EB030529
:100750005B084FEA32024FF480104FF4002CB6EBE6
:10076000020E75EB030E22BFB61A754640EA0C0066
:100770005B084FEA3202B6EB020E75EB030E22BFA6
:10078000B61A754640EA5C005B084FEA3202B6EBE7
:10079000020E75EB030E22BFB61A754640EA9C00A6
:1007A0005B084FEA3202B6EB020E75EB030E22BF76
:1007B000B61A754640EADC0055EA060E18D04FEA34
:1007C000051545EA16754FEA06164FEAC30343EAD4
:1007D00052734FEAC2025FEA1C1CC0D111F4801FA1
:1007E0000BD141EA00014FF000004FF0004CB6E79A
:1007F00011F4801F04BF01430020B4F1FD0C88BF39
:10080000BCF5E06F3FF6AFAEB5EB030C04BFB6EB43
:10081000020C5FEA500C50F1000041EB045170BD36
:100820000EF0004E4EEA113114EB5C04C2BFD4EB63
:100830000C0541EA045170BD41F480114FF0000EE7
:10084000013C90E645EA060E8DE60CEA135594EA63
:100850000C0F08BF95EA0C0F3FF43BAF94EA0C0F66
:100860000AD150EA01347FF434AF95EA0C0F7FF4DB
:1008700025AF104619462CE795EA0C0F06D152EA2F
:1008800003353FF4FDAE1046194622E750EA410613
:1008900018BF52EA43067FF4C5AE50EA41047FF424
:1008A0000DAF52EA43057FF4EBAE12E74FF0FF3C89
:1008B00006E000BF4FF0010C02E000BF4FF0010C5A
:1008C0004DF804CD4FEA410C7FEA6C5C4FEA430CD3
:1008D00018BF7FEA6C5C1BD001B050EA410C0CBF22
:1008E00052EA430C91EA030F02BF90EA020F002084
:1008F000704710F1000F91EA030F58BF994208BFEB
:1009000090422CBFD8176FEAE37040F001007047A7
:100910004FEA410C7FEA6C5C02D150EA013C07D1FE
:100920004FEA430C7FEA6C5CD6D152EA033CD3D049
:100930005DF8040B704700BF8446104662468C4643
:100940001946634600E000BF01B5FFF7B7FF002876
:1009500048BF10F1000F01BD4DF808EDFFF7F4FF9F
:100960000CBF012000205DF808FB00BF4DF808ED2A
:10097000FFF7EAFF34BF012000205DF808FB00BF4D
:100980004DF808EDFFF7E0FF94BF012000205DF86F
:1009900008FB00BF4DF808EDFFF7CEFF94BF012024
:1009A00000205DF808FB00BF4DF808EDFFF7C4FF1D
:1009B00034BF012000205DF808FB00BF4FEA410270
:1009C000B2F1E04324BFB3F5001CDCF1FE5C0DD9AD
:1009D00001F0004C4FEAC0024CEA5070B2F1004FF7
:1009E00040EB830008BF20F00100704711F0804FFA
:1009F00021D113F13872BCBF01F00040704741F4BF
:100A000080114FEA5252C2F11802C2F1200C10FAC2
:100A10000CF320FA02F018BF40F001004FEAC123A6
:100A20004FEAD32303FA0CFC40EA0C0023FA02F34A
:100A30004FEA4303CCE77FEA625307D150EA013320
:100A40001EBF4FF0FE4040F44000704701F00040F0
:100A500040F0FE4040F40000704700BF80F00040CE
:100A600002E000BF81F0004142001FBF5FEA410386
:100A700092EA030F7FEA226C7FEA236C6AD04FEA86
:100A80001262D2EB1363C1BFD218414048404140CB
:100A9000B8BF5B42192B88BF704710F0004F40F47D
:100AA000000020F07F4018BF404211F0004F41F499
:100AB000000121F07F4118BF494292EA030F3FD065
:100AC000A2F1010241FA03FC10EB0C00C3F1200378
:100AD00001FA03F100F0004302D5494260EB400007
:100AE000B0F5000F13D3B0F1807F06D340084FEA72
:100AF000310102F10102FE2A51D2B1F1004F40EB67
:100B0000C25008BF20F0010040EA030070474900CE
:100B100040EB0000013A28BFB0F5000FEDD2B0FA6B
:100B200080FCACF1080CB2EB0C0200FA0CF0AABF8E
:100B300000EBC25052421843BCBFD040184370472C
:100B400092F0000F81F4000106BF80F40000013232
:100B5000013BB5E74FEA41037FEA226C18BF7FEA09
:100B6000236C21D092EA030F04D092F0000F08BF4B
:100B70000846704790EA010F1CBF0020704712F032
:100B80007F4F04D1400028BF40F00040704712F171
:100B900000723CBF00F50000704700F0004343F0D6
:100BA000FE4040F4000070477FEA226216BF08460C
:100BB0007FEA23630146420206BF5FEA412390EACF
:100BC000010F40F4800070474FF0000304E000BFC5
:100BD00010F0004348BF40425FEA000C08BF704776
:100BE00043F0964301464FF000001CE050EA01023A
:100BF00008BF70474FF000030AE000BF50EA01024F
:100C000008BF704711F0004302D5404261EB41013B
:100C10005FEA010C02BF84460146002043F0B64360
:100C200008BFA3F18053A3F50003BCFA8CF2083A85
:100C3000A3EBC25310DB01FA02FC634400FA02FC8E
:100C4000C2F12002BCF1004F20FA02F243EB020095
:100C500008BF20F00100704702F1200201FA02FCF7
:100C6000C2F1200250EA4C0021FA02F243EB0200EA
:100C700008BF20EADC7070474FF0FF0C1CEAD0522E
:100C80001EBF1CEAD15392EA0C0F93EA0C0F6FD0EF
:100C90001A4480EA010C400218BF5FEA41211ED0CD
:100CA0004FF0006343EA501043EA5111A0FB0131B9
:100CB0000CF00040B1F5000F3EBF490041EAD3718E
:100CC0005B0040EA010062F17F02FD2A1DD8B3F10A
:100CD000004F40EBC25008BF20F00100704790F079
:100CE000000F0CF0004C08BF49024CEA502040EACB
:100CF00051207F3AC2BFD2F1FF0340EAC250704791
:100D000040F400004FF00003013A5DDC12F1190FCE
:100D1000DCBF00F000407047C2F10002410021FA40
:100D200002F1C2F1200200FA02FC5FEA310040F158
:100D3000000053EA4C0308BF20EADC70704792F0D1
:100D4000000F00F0004C02BF400010F4000F013A09
:100D5000F9D040EA0C0093F0000F01F0004C02BF04
:100D6000490011F4000F013BF9D041EA0C018FE773
:100D70000CEAD15392EA0C0F18BF93EA0C0F0AD079
:100D800030F0004C18BF31F0004CD8D180EA01009F
:100D900000F00040704790F0000F17BF90F0004F38
:100DA000084691F0000F91F0004F14D092EA0C0F1A
:100DB00001D142020FD193EA0C0F03D14B0218BFAD
:100DC000084608D180EA010000F0004040F0FE40F3
:100DD00040F40000704740F0FE4040F4400070478F
:100DE0004FF0FF0C1CEAD0521EBF1CEAD15392EA0E
:100DF0000C0F93EA0C0F69D0A2EB030280EA010CFE
:100E000049024FEA402037D04FF0805343EA111196
:100E100043EA10130CF000408B4238BF5B0042F1F4
:100E20007D024FF4000C8B4224BF5B1A40EA0C0099
:100E3000B3EB510F24BFA3EB510340EA5C00B3EBCB
:100E4000910F24BFA3EB910340EA9C00B3EBD10FB9
:100E500024BFA3EBD10340EADC001B0118BF5FEA0B
:100E60001C1CE0D1FD2A3FF650AF8B4240EBC25034
:100E700008BF20F0010070470CF0004C4CEA5020F5
:100E80007F32C2BFD2F1FF0340EAC250704740F444
:100E900000004FF00003013A37E792F0000F00F036
:100EA000004C02BF400010F4000F013AF9D040EAB4
:100EB0000C0093F0000F01F0004C02BF490011F448
:100EC000000F013BF9D041EA0C0195E70CEAD15340
:100ED00092EA0C0F08D142027FF47DAF93EA0C0F27
:100EE0007FF470AF084676E793EA0C0F04D14B020B
:100EF0003FF44CAF08466EE730F0004C18BF31F0BD
:100F0000004CCAD130F000427FF45CAF31F00043B6
:100F10007FF43CAF5FE700BF4FF0FF3C06E000BF4F
:100F20004FF0010C02E000BF4FF0010C4DF804CD72
:100F30004FEA40024FEA41037FEA226C18BF7FEA82
:100F4000236C11D001B052EA530C18BF90EA010F84
:100F500058BFB2EB030088BFC81738BF6FEAE17013
:100F600018BF40F0010070477FEA226C02D15FEAAF
:100F7000402C05D17FEA236CE4D15FEA412CE1D01B
:100F80005DF8040B704700BF844608466146FFE7E2
:100F90000FB5FFF7C9FF002848BF10F1000F0FBDC4
:100FA0004DF808EDFFF7F4FF0CBF012000205DF8BD
:100FB00008FB00BF4DF808EDFFF7EAFF34BF012042
:100FC00000205DF808FB00BF4DF808EDFFF7E0FFDB
:100FD00094BF012000205DF808FB00BF4DF808ED2C
:100FE000FFF7D2FF94BF012000205DF808FB00BF8F
:100FF0004DF808EDFFF7C8FF34BF012000205DF871
:1010000008FB00BF42000ED2B2F1FE4F0BD34FF0EF
:101010009E03B3EB126209D44FEA002343F000436E
:1010200023FA02F070474FF00000704712F1610F91
:1010300001D1420202D14FF0FF3070474FF0000063
:10104000704700BF00F1340191E838009C46A64685
:101050004CF8045D90E8FF0FE54600BD90EC210BD5
:10106000704700BF80EC210B704700BF90EC200B55
:10107000704700BF80EC200B704700BFD0EC200B06
:10108000704700BFC0EC200B704700BFF0EC0201BE
:10109000F0EC0211F0EC0221F0EC0231F0EC024134
:1010A000F0EC0251F0EC0261F0EC0271F0EC028124
:1010B000F0EC0291F0EC02A1F0EC02B1F0EC02C114
:1010C000F0EC02D1F0EC02E1F0EC02F1704700BF6D
:1010D000E0EC0201E0EC0211E0EC0221E0EC023174
:1010E000E0EC0241E0EC0251E0EC0261E0EC027164
:1010F000E0EC0281E0EC0291E0EC02A1E0EC02B154
:10110000E0EC02C1E0EC02D1E0EC02E1E0EC02F143
:10111000704700BFB0FC0181B0FC0191B0FC01A19F
:10112000B0FC01B1704700BFA0FC0181A0FC01919F
:10113000A0FC01A1A0FC01B1704700BFEC4600B5C6
:101140002DE900502DE9FF1F4FF000032DE90C00A1
:1011500001A902F033FEDDF840E012B0704700BF95
:10116000EC4600B52DE900502DE9FF1F4FF00003BC
:101170002DE90C0001A902F061FEDDF840E012B09B
:10118000704700BFEC4600B52DE900502DE9FF1F68
:101190004FF000032DE90C0001A902F071FEDDF80B
:1011A00040E012B0704700BFEC4600B52DE900509A
:1011B0002DE9FF1F4FF000032DE90C0001AB02F0F9
:1011C00031FEDDF840E012B0704700BFEC4600B5DC
:1011D0002DE900502DE9FF1F4FF000032DE90C0011
:1011E00001AA02F0A3FEDDF840E012B0704700BF94
:1011F000844641EA000313F0030349D1403A23D364
:101200000B6803604B6843608B688360CB68C36086
:101210000B6903614B6943618B698361CB69C3616E
:101220000B6A03624B6A43628B6A8362CB6AC36256
:101230000B6B03634B6B43638B6B8363CB6BC3633E
:1012400040304031403ADBD230320BD30B68036080
:101250004B6843608B688360CB68C360103010318B
:10126000103AF3D20C3205D351F8043B40F8043B5A
:10127000043AF9D2043208D0D2071CBF11F8013B5E
:1012800000F8013B01D30B8803806046704700BF24
:10129000082A13D38B07B1D010F00303AED0C3F1EB
:1012A0000403D21ADB071CBF11F8013B00F8013B15
:1012B000A4D331F8023B20F8023B9FE7043AD9D38C
:1012C000013A11F8013B00F8013BF9D20B780370A9
:1012D0004B7843708B7883706046704710B5054C2F
:1012E000237833B9044B13B10448AFF300800123D2
:1012F000237010BD5004002000000000B448000816
:1013000008B5034B1BB103490348AFF3008008BD88
:101310000000000054040020B4480008024B18608C
:10132000024B1960704700BF000000206C040020D1
:1013300038B54468084B1D6829462046FFF758FE1B
:1013400020B129462046FFF78DFB0446034B196860
:101350002046FFF791FC38BD6C04002000000020FF
:1013600010B504460021FFF71BFE28B9A4F50000C4
:10137000400800F1005010BD0020FCE7024A53680D
:1013800003445360704700BF70040020024B198073
:10139000024B1860704700BF240500200C05002098
:1013A000014B00225A6070477004002038B5064C8B
:1013B0000025A4F89050A4F88C5002232380FFF756
:1013C000EFFFA4F8905038BD70040020000000002A
:1013D0002DE9F04F83B081468B4692461C4601466C
:1013E0001046FFF749FC204B986021465046FFF716
:1013F000F7FC01904D4600242DE029465046FFF7AA
:10140000EFFC01460198FFF72FFBFFF7A9FF80468D
:101410005846FEF7E1FF12A3D3E90023FEF77EFE54
:1014200006460F464046FEF7D7FF32463B46FFF7DB
:101430002BF8FFF7C3FA01464846FFF71DFCA21C34
:10144000094B03EB8203586049462846FFF70CFB23
:1014500005460134E4B20F2CCFD903B0BDE8F08FBC
:101460009A9999999999B93F7004002038B53C4BE5
:101470001B8873B3012B67D13A4A138801339BB29F
:101480001380002B6BD0134600221A80344C94F842
:101490008E306268123304EB83035A60FFF780FFDB
:1014A00094F88E300133DBB284F88E3003F00F03F2
:1014B00084F88E30B4F89030002B50D1B4F88C30D2
:1014C000591CA4F88C10102B49D90122A4F89020A3
:1014D00045E0234BB3F88C00013080B2A3F88C00B8
:1014E000214B1B8898423AD9FFF76EFB1C4CC4F87D
:1014F00098004FF07A51FFF7BFFB0546C4F89800FB
:101500006068FFF761FBC4F894002946FFF768FCA8
:101510000246C4F894002B46144909684FF07A50EB
:10152000FFF756FF2388D3B9FFF73AFF0123238043
:101530000023A4F88C30A4F8903084F88F3084F81D
:101540008E30084A13800AE0054A0023A2F8903042
:101550001380A2F88C30034A1380FFF721FF38BDB7
:101560007004002028050020240500200C05002020
:101570002DE9F04F83B0009001910125434B1D8070
:101580000023434A1360434A13604FF6FF764FF03F
:10159000000B5F465C460BE04FF07E5146E03B4A55
:1015A00013880133138076086D00ADB20134E4B2C4
:1015B0000F2C60D804F11203374A02EB83035B68F7
:1015C0001F4416F0010FEAD0042FE8D93846FFF780
:1015D000FBFA8146DFF8C4A0CAF800002B4B18883C
:1015E000FFF7F6FA01464846FFF7FAFB8146CAF8CC
:1015F0000000294BD3F808A05146FFF7F9FC00285A
:10160000CDD051464846FFF72DFA8146234B18604E
:1016100004F10208204B03EB8808D8F80400204BA3
:101620001860782FB8D81F4B53F82710FFF724FB0A
:1016300080461B4B186001464846FFF7D9FC00283E
:10164000ADD04BEA050B1BF0080FA8D0DFF840A087
:10165000CAF8009041464846FFF7C2FB8046CAF8E8
:1016600000000C4B1968FFF7C3FC002897D0094B0A
:10167000C3F8008093E7074B1B68019A1360009B37
:10168000A3F800B003B0BDE8F08F00BF1C05002038
:101690001005002014050020700400202005002003
:1016A00018050020CC480008002303804FF07E532B
:1016B0000B60154BB3F8903013B3F0B583B005460B
:1016C0000C46114B93F88F2093F88E309A4219D024
:1016D0000D4A82F88F300D4E01A93046FFF748FFC2
:1016E0003788019E4FF07E513046FFF781FC20B1D4
:1016F0002F802660012003B0F0BD4FF07E56F7E743
:10170000002070470020F6E7700400202605002026
:1017100038B5054614460846FFF756FA4FF08141A2
:10172000FFF7AAFAFFF76EFC81B22846FFF72EFEFC
:10173000204600F073F8FFF739FE38BD10B50446B7
:1017400044F62062002300F0ABF8012000F0F4F929
:101750002046FFF713FEFFF789FE024B01221A8095
:1017600010BD00BF3205002070B582B004460023D2
:10177000ADF80230194D1A4E2946304600F07CFA79
:10178000336863602B782372164B1B88012B01D0C2
:1017900002B070BD134B00221A8001A90DF10200A6
:1017A000FFF782FFA0B1237803F0FD032370BDF89B
:1017B00002203AB143F0010323700198FFF722FCA5
:1017C0006070E5E723F00103237000236370DFE717
:1017D000237843F002032370DAE700BF30050020CE
:1017E0002C0500203205002030B4002303600024C3
:1017F0000025C0E902450DE00C680368234403603E
:101800008368C4688D685B19CD6845EB0404836008
:10181000C46010319142EFD130BC704710B504461E
:10182000084B18600021FFF7BBFB18B1064B0022E4
:101830001A6010BD21464FF07E50FFF7D1FA024BDF
:101840001860F6E7E0070020E407002038B50446FA
:10185000114B1D6800212846FFF7A2FB48B921461D
:101860002846FFF7A7FB30B129462046FFF704FAC8
:101870000446204638BD094B19682046FFF7FCF99D
:1018800001464FF07E50FFF7EDF801462046FFF786
:10189000A7FA0446EDE700BFE4070020E0070020B8
:1018A00070B588B00490CDE906230026009600228A
:1018B0000023CDE902233C4C22E06D4604F13003C5
:1018C0000FCB85E80F003022214604F1100001F013
:1018D000D7FF0DF1100C9CE80F0084E80F00334B8C
:1018E00001229A5595E80F008CE80F0004F140059D
:1018F0002F4B1B689D421ED80136072E1FD82C4641
:10190000002EDAD0294B9B5D032BD6D8002BD4D0E8
:101910002368049A13442360069AA368E1689B181D
:10192000079A42EB0102A360E260204A935D013313
:101930009355254603E010331D4A136025461C4B82
:101940001C68AC4201D3082E01D008B070BD174B03
:101950009B5D013BDBB2022B11D82B68049A134428
:101960002B600699AB68E8685B18079A42EB0002A7
:10197000AB60EA600D4A935D01339355E5E7702251
:10198000294605F1100001F07BFF08AB13E90F00B9
:1019900085E80F00054B01229A55064B9C42D4D096
:1019A0001034034B1C60D0E7600500205405002074
:1019B00004000020E007002010B504460021FFF7D6
:1019C000EFFA28B9A4F50000400800F1005010BD5E
:1019D0000020FCE770B5056835B3044601EBC10192
:1019E000144B1944087AFFF7F3F806462846FFF728
:1019F000EBF80546FFF7E0FF01463046FFF73CF9FC
:101A0000064601462846FFF7DFFA80B9D4E902010D
:101A1000FFF7ECF8044631462846FFF723F8014665
:101A20002046FFF7DDF901E04FF0BF4070BD4FF0F9
:101A3000BF40FBE7B04A00082DE9F04105460E46DD
:101A40001446C2F30313D0F800804146072928BF8B
:101A5000072103EBC303374A1344585CFFF7B4F87C
:101A60000746B8F1000F3FD14FF07E51FEF7FCFF63
:101A70000746D5E90201FFF7B9F83946FFF7B0F993
:101A8000074621463046FFF7A5FF3946FFF792FA91
:101A9000002849D1C4F30313D6F800804146072932
:101AA00028BF072103EBC303224A1344585CFFF706
:101AB0008BF80746B8F1000F26D14FF07E51FEF7A4
:101AC000D3FF0746D6E90201FFF790F83946FFF742
:101AD00087F9064621462846FFF77CFF3146FFF787
:101AE00069FA20B3012020E04046FFF76DF88046F8
:101AF000FFF762FF01463846FFF7BEF80146404651
:101B0000FEF7B2FF0746B4E74046FFF75DF88046B0
:101B1000FFF752FF01463846FFF7AEF80146404650
:101B2000FEF7A2FF0746CDE70120BDE8F0810020C7
:101B3000FBE700BFB04A00084B4B1A684B4BD31A67
:101B4000202B00DC7047F0B58DB00646474C04F101
:101B5000200108A8FFF748FE324608A92046FFF7F3
:101B60006BFF90B1424B1B781BB9414B01221A709D
:101B700018E000233E4A13703B4A04F12001116033
:101B80003C4A1360536013726CE0394B1B7833B1DD
:101B9000364B00221A6100200021C3E90601344BB4
:101BA00000221A70314C2269089B13440893A169E2
:101BB000E2690A9B5B180B9942EB01020A930B92B4
:101BC0000023049300220023CDE90623012540349D
:101BD000254B1B681B1B102B44DD082D42D82246C9
:101BE000A4F130016846FFF7FFFD009F2368FA1853
:101BF000089B9B1A0893029B0399A268E0689A18B5
:101C000041EB0000DDF828C0BCEB0202DDF82CC07F
:101C10006CEB00000A920B9054F8402C1744049A85
:101C20001744049754F8382C54F8340C9B1841EBA3
:101C30000001069AD318079A41EB02010693079117
:101C4000324608A904A8FFF7F7FE10B94034013561
:101C5000BEE7054B1C60C5F1090200210548284478
:101C600001F08AFE0DB0F0BD0400002060050020E8
:101C700050050020540500202DE9F04385B00746AB
:101C80000E46394B1B683B2B48D8384B1A683649EF
:101C90006846FFF7A9FDDDE90201FEF7BFFB02463A
:101CA0000B46DFF8CC80C8E900232DA3D3E900233D
:101CB000FEF7EAFB04460D46C8E900450022002372
:101CC000DFF8B0C0CCE90023DFF8ACC04FF0630E02
:101CD0008CF800E0FEF768FE78B3DDF8008040463F
:101CE000FEF758FB02460B46DFF88890C9E900234F
:101CF00022462B46FEF7F2FCC9E90001B8F1040FB9
:101D000018D94046FEF760FFFFF756FE01461B4814
:101D1000FFF766F8FFF776F9C0B20CE0124901F55B
:101D20008073124A12689A4228BF1A466846FFF723
:101D30005BFDB0E76320104B18700E4DD5E9000134
:101D4000FEF73CFEFFF782FD0446FEF745FBC5E9C2
:101D500000013C60084B1B78337005B0BDE8F08390
:101D6000000000E0E236EA3E6005002004000020AA
:101D700048050020380500204005002000004843A9
:101D800003464FF6FF704A1ED2B281B110B413F869
:101D9000011BC4B26140064C34F8111081EA1020D6
:101DA0001146013AD2B20029F1D110BC70477047F8
:101DB000E84A00088B5C43708B185B788370062BB5
:101DC00016D0102B28D0032B00D0704711448A78EE
:101DD0004FF0000362F30F23CA7862F30703838096
:101DE0000A7962F30F234A7962F30703C3807047CD
:101DF00011448A784FF0000362F30F23CA7862F32C
:101E0000070383800A7962F30F234A7962F3070399
:101E100003810023037070471144CA784FF0000318
:101E200062F30F230A7962F3070383804A7962F32E
:101E30000F238A7962F30703C380CB79C3700B7ACF
:101E4000C3734B7A83738B7A4373CB7A0373012307
:101E50000370BAE72DE9F04389B000240494059497
:101E6000069407943E4B9A6942F010029A619A696F
:101E700002F010020092009A9A6942F020029A61E0
:101E80009A6902F020020192019A9A6942F00402D2
:101E90009A619A6902F004020292029A9A6942F0E7
:101EA00008029A619B6903F008030393039BDFF820
:101EB000B48022464FF40051404600F0E1FD2A4F25
:101EC000224647F27801384600F0DAFDDFF89C90B0
:101ED000224640F60111484600F0D2FD22464FF45A
:101EE0000051404600F0CCFD4FF40053049301260E
:101EF000059606940225079504A9404600F0AEFC1D
:101F0000032304931A4B0593069404A9384600F062
:101F1000A5FC47F27803049305960694079504A957
:101F2000384600F09BFC40F6011304930596069496
:101F3000079504A9484600F091FC22462146062058
:101F400000F0C4FB062000F0F9FB224621460720E2
:101F500000F0BCFB072000F0F1FB09B0BDE8F08306
:101F60000010024000100140000C01400008014038
:101F70000000111010B5344B1A6834490B8892F8E0
:101F800000C0334800F803C001339BB20B80B3F5A7
:101F9000806F02D30B46002119801378652B13D074
:101FA0002C4B1B781BB12C4B1B78012B17D02A4BC9
:101FB0001B780A2B1DD9244B284A1A600023264A75
:101FC0001370244A137012E0224B1B78002BE7D1C8
:101FD000204B01211970204B00211970E0E7127885
:101FE0001F4B1A70E3E71D4A0021D1540133092B1E
:101FF000F9DD184B1B781BB1174B1B78072B12D040
:10200000114815490B78026812F801CB134C04F8FB
:1020100003C0026001330B7001220B4B1968114899
:1020200001F0C7FB10BD0E4B1B78032BE8D1064B0C
:102030000A4A1A600023074A1370074A13700A4BB2
:1020400001221A70E8E700BF0C000020EA07002018
:10205000EC070020E8070020A40C0020B80C0020AA
:10206000E90700201C0C0020B80D002038B50446FC
:10207000002201211F4800F003FD2378012B05D920
:10208000012211461B4800F0FBFC38BD62781A4B58
:102090001A70A2785A70E2789A70237893B96379AB
:1020A000154DEB7023792B7105212846FFF768FE4B
:1020B000C0F307236B71A871072229460F4801F06E
:1020C000B1F9DDE7E37A0C4DEB70A37A2B71637AFB
:1020D0006B71237AAB7107212846FFF751FEC0F3DD
:1020E00007232B72687209222946044801F09AF9E5
:1020F000C6E700BF00080140DC0D00201C0C0020DA
:1021000010B500F035FA0A4A138801339BB21380E8
:10211000F92B00D810BD074C2088FFF70FFB0023D8
:102120002380054A01211170014A1380F2E700BFA4
:10213000D80D0020D40D0020DA0D002008B5044A87
:10214000138801331380012000F0AAFC08BD00BFF2
:10215000D40D002008B5064A1388013313804FF4CC
:102160000051044800F092FC022000F099FC08BDE8
:10217000D40D00200010014072B6FEE708B50A48F1
:102180000A4B03604FF41653436000238360C3601F
:1021900003610C2242618361C36101F0DFF800B981
:1021A00008BDFFF7E9FF00BF1C0C0020003801400C
:1021B00008B50A480A4B03604FF4E133436000233B
:1021C0008360C36003610C2242618361C36101F0DB
:1021D000F4F800B908BDFFF7CFFF00BF600C002086
:1021E0000044004000B595B0282200210DEB02000C
:1021F00001F0C2FB0023059306930793089309930C
:1022000001930293039304930A230A9301230E93E9
:1022100010220F921093022311934FF46013139323
:102220000AA800F061FCC8B90F23059302210691AA
:10223000002307934FF480620892099305A800F0E9
:1022400091FE68B9022301934FF40043039301A860
:1022500000F064FF30B915B05DF804FBFFF78CFFA8
:10226000FFF78AFFFFF788FF08B500F06FF9FFF767
:10227000B9FFFFF7EFFDFFF781FFFFF799FF00249C
:1022800022463C213748FFF743FA21463648FFF7FC
:1022900045F801223549364801F08BFA02E0354B0A
:1022A0001B786BB9344B1B78002BF8D0334C20468D
:1022B000FFF75AFA2046FFF73BF8314B1860EEE77C
:1022C000304C002229492046FFF774FDA378032BE8
:1022D00016D12D4B2D4A12785A7003229A70A3887A
:1022E000072B0DD8DFE803F004131B0C242D0C364C
:1022F000254B4FF47A729A800222DA7000221A700B
:102300002148FFF7B3FE1B4B00221A70CAE71E4B91
:1023100019229A800222DA7000221A70F0E7184B14
:102320001A68194B9A600422DA7001221A70E7E7E2
:10233000154B174A12889A800222DA7000221A700E
:10234000DEE7114B4FF07A529A600422DA700122D4
:102350001A70D5E70C4B0F4A9A600422DA700122FA
:102360001A70CDE79A9959404160653CB80C00203D
:102370001C0C0020B80D0020DA0D0020C80D002034
:10238000EC0D0020A80C0020BC0D0020080000204F
:10239000F00D00200000A03F82B00E4B9A6942F081
:1023A00001029A619A6902F001020092009ADA69C8
:1023B00042F08052DA61DB6903F080530193019BA4
:1023C000054A536823F0E06343F00073536002B0A2
:1023D000704700BF001002400000014030B589B0D6
:1023E0000023049305930693079303682F4A9342AF
:1023F00004D02F4A934233D009B030BD2D4B9A6997
:1024000042F480429A619A6902F480420092009AF2
:102410009A6942F004029A619B6903F004030193F4
:10242000019B4FF400730493022305930323079346
:10243000214D04A9284600F011FA4FF4806304935B
:1024400000240594069404A9284600F007FA2246C1
:102450002146252000F03AF9252000F06FF9CBE75E
:10246000144BDA6942F40032DA61DA6902F40032BC
:102470000292029A9A6942F004029A619B6903F0FF
:1024800004030393039B0423049312230593032360
:10249000079304A9084800F0E1F90022114626201C
:1024A00000F014F9262000F049F9A5E700380140B2
:1024B000004400400010024000080140FEE7FEE733
:1024C000FEE7FEE7FEE770477047704708B5024831
:1024D00000F062F808BD00BFEC0B002008B5024810
:1024E00001F04AF808BD00BF1C0C002008B50248E6
:1024F00001F042F808BD00BF600C002070470000EA
:1025000010B504460E4B18784FF47A73B3FBF0F312
:102510000C4A1068B0FBF3F000F01EF968B90F2CFC
:1025200001D901200AE0002221464FF0FF3000F0DF
:10253000CDF8054B1C60002000E0012010BD00BF5D
:1025400014000020100000201800002008B5074AE1
:10255000136843F010031360032000F0A5F80F2068
:10256000FFF7CEFFFFF718FF002008BD0020024054
:10257000034A1168034B1B780B441360704700BF7C
:10258000F40D002014000020014B1868704700BFB4
:10259000F40D00207047704710B5044603685A6870
:1025A00012F0200F18D01A6812F0020F14D0826AAD
:1025B00012F0100F03D1826A42F4007282629A68AC
:1025C00002F46022B2F5602F38D02046FFF7E2FF18
:1025D00023686FF012021A6023685A6812F0800FA5
:1025E00022D01A6812F0040F1ED0A26A12F0100F47
:1025F00003D1A26A42F40052A2629A6802F4E04255
:10260000B2F5E04F31D05A6812F4806F05D19A6864
:1026100002F46022B2F5602F24D0204600F042F888
:1026200023686FF00C021A6023685A6812F0400F9A
:1026300003D01B6813F0010F28D110BD227B002AA4
:10264000C3D15A6822F020025A60A36A23F480732F
:10265000A362A36A13F4805FB7D1A36A43F00103B6
:10266000A362B2E7227B002AD7D15A6822F0800207
:102670005A60A36A23F48053A362A36A13F4807F91
:10268000CBD1A36A43F00103A362C6E7A36A43F474
:102690008033A3622046FFF77EFF23686FF00102BC
:1026A0001A60CAE770470000074AD36823F4E06362
:1026B0001B041B0C000200F4E060034343F0BF6303
:1026C00043F40033D360704700ED00E000B5194BD0
:1026D000DB68C3F30223C3F1070CBCF1040F28BF6E
:1026E0004FF0040C03F1040EBEF1060F18D9033BA2
:1026F0004FF0FF3E0EFA0CFC21EA0C0199400EFA55
:1027000003F322EA0303194300280BDB0901C9B2D2
:1027100000F1604000F5614080F800135DF804FBB3
:102720000023E5E700F00F000901C9B2024B19547C
:10273000F4E700BF00ED00E014ED00E0002807DB47
:1027400000F01F02400901239340024A42F8203062
:10275000704700BF00E100E00138B0F1807F0BD28C
:102760004FF0E0235861054AF02182F82310002041
:10277000986107221A6170470120704700ED00E060
:1027800090F82130022B06D004238363002380F8C5
:102790002030012070470268136823F00E03136095
:1027A0000268136823F001031360036CC16B0122FC
:1027B00002FA03F34B6080F82120002380F82030D8
:1027C0001846704708B590F82130022B03D0042337
:1027D0008363012008BD0268136823F00E031360B1
:1027E0000268136823F0010313600368194A9342D7
:1027F00014D0143293421FD0143293421ED014329C
:1028000093421ED0143293421ED01432934202D00F
:102810004FF0807203E04FF4801200E001220E4B73
:102820005A60012380F82130002380F82030436B68
:102830006BB198470020CDE71022F0E74FF480728B
:10284000EDE74FF48052EAE74FF48032E7E70020EB
:10285000C0E700BF080002400000024070B582B02F
:102860000024A446A6E0804DAA4210D007D97F4D8F
:10287000AA420CD005F58035AA4208D013E0A5F590
:102880008015AA4203D005F57025AA4207D18A68AF
:10289000002A58D0012A51D04361082403E0A5F54D
:1028A0008015AA42F3D0BEF1FF0F4ED80646BEF106
:1028B000FF0F4CD84FEA8C0233680F25954023EA6E
:1028C000050304FA02F2134333604B6813F0805F90
:1028D0006ED0674B9A6942F001029A619B6903F0DE
:1028E00001030193019B4FEA9C02951C614B53F835
:1028F00025600CF003039D000F23AB4026EA03067E
:102900005D4B984229D003F58063984200F08E8099
:1029100003F58063984200F08B8003F58063984252
:1029200019D004231AE0CC68BDE7CC680434BAE7B8
:10293000CC680834B7E7CC680C34B4E703610824EA
:10294000B1E70024AFE70424ADE7061DAFE7ACF123
:1029500008029200B0E7032300E00023AB403343BA
:102960000232444D45F822304B6813F4803F61D069
:10297000424A136843EA0E0313604B6813F4003FA6
:102980005ED03E4A536843EA0E0353604B6813F42B
:10299000801F5BD0394A936843EA0E0393604B680B
:1029A00013F4001F58D0354AD36843EA0E03D360AE
:1029B0000CF1010C0A6832FA0CF353D0012303FA2C
:1029C0000CF302EA030E33EA0202F1D14A68122A3A
:1029D0003FF649AF122A3FF666AF01A555F822F03F
:1029E0008F280008272900083129000843290008FA
:1029F000A7280008A7280008A7280008A72800087B
:102A0000A7280008A7280008A7280008A72800086A
:102A1000A7280008A7280008A7280008A72800085A
:102A2000A72800082B29000837290008012395E76B
:102A3000022393E7114A136823EA0E0313609CE70D
:102A40000E4A536823EA0E0353609FE70B4A9368CC
:102A500023EA0E039360A2E7084AD36823EA0E0331
:102A6000D360A5E702B070BD000022100000311055
:102A70000010024000000140000801400004014035
:102A80000AB101617047090401617047C36801EA36
:102A9000030221EA030141EA0241016170477047E4
:102AA00008B5054B5B69034200D108BD024B586174
:102AB000FFF7F5FFF9E700BF0004014082B0084BC3
:102AC0001B68084AA2FB03235B0A00FB03F3019384
:102AD00000BF019B5A1E0192002BF9D102B0704732
:102AE00010000020D34D6210002800F0F18170B575
:102AF00082B00446036813F0010F2CD0994B5B6839
:102B000003F00C03042B1DD0964B5B6803F00C0301
:102B1000082B12D06368B3F5803F41D0002B55D10C
:102B200003F1804303F504331A6822F480321A60FB
:102B30001A6822F480221A6037E08A4B5B6813F42B
:102B4000803FE7D0874B1B6813F4003F03D06368D6
:102B5000002B00F0BF81236813F0020F75D0814B6A
:102B60005B6813F00C0F5FD07E4B5B6803F00C03C7
:102B7000082B54D02369002B00F08A807A4B012265
:102B80001A60FFF701FD0546764B1B6813F0020F34
:102B900075D1FFF7F9FC401B0228F5D903209EE10F
:102BA000704A136843F480331360636843B3FFF7DC
:102BB000EBFC05466B4B1B6813F4003FCBD1FFF7D2
:102BC000E3FC401B6428F5D9032088E1B3F5A02F6E
:102BD00009D0644B1A6822F480321A601A6822F411
:102BE00080221A60E1E703F18043A3F53C331A68C1
:102BF00042F480221A601A6842F480321A60D4E7E4
:102C0000FFF7C2FC0546574B1B6813F4003FA2D0E8
:102C1000FFF7BAFC401B6428F5D903205FE1514B54
:102C20005B6813F4803FA5D14E4B1B6813F0020F75
:102C300003D02369012B40F04F814A4A136823F0E7
:102C4000F803616943EAC1031360236813F0080FB6
:102C500033D0A369002B5CD0434B0122C3F88024FE
:102C6000FFF792FC05463F4B5B6A13F0020F21D140
:102C7000FFF78AFC401B0228F5D903202FE1394ACF
:102C8000136823F0F803616943EAC1031360DCE7CA
:102C9000354B00221A60FFF777FC0546314B1B6865
:102CA00013F0020FD1D0FFF76FFC401B0228F5D9BB
:102CB000032014E10120FFF701FF236813F0040F44
:102CC00000F09680274BDB6913F0805F34D1254BF1
:102CD000DA6942F08052DA61DB6903F080530193D4
:102CE000019B0125214B1B6813F4807F26D0E368EC
:102CF000012B3DD0002B53D103F1804303F5043366
:102D00001A6A22F001021A621A6A22F004021A6296
:102D100033E0154B0022C3F88024FFF735FC05464D
:102D2000104B5B6A13F0020FC7D0FFF72DFC401B5E
:102D30000228F5D90320D2E00025D3E70B4A136817
:102D400043F480731360FFF71FFC0646074B1B68B4
:102D500013F4807FCBD1FFF717FC801B6428F5D9D3
:102D60000320BCE00010024000004242007000401E
:102D70005F4A136A43F001031362E36833B3FFF75A
:102D800003FC06465A4B1B6A13F0020F2FD1FFF7C4
:102D9000FBFB801B41F288339842F3D903209EE06D
:102DA000052B09D0524B1A6A22F001021A621A6AE4
:102DB00022F004021A62E0E74D4B1A6A42F0040264
:102DC0001A621A6A42F001021A62D6E7FFF7DCFBC8
:102DD0000646474B1B6A13F0020F08D0FFF7D4FBDF
:102DE000801B41F288339842F3D9032077E0E5B99C
:102DF000E369002B72D03E4A526802F00C02082AA6
:102E000056D0022B17D03B4B00221A66FFF7BCFBB3
:102E10000446374B1B6813F0007F47D0FFF7B4FB25
:102E2000001B0228F5D9032059E0314AD36923F069
:102E30008053D361DCE72F4B00221A66FFF7A4FB17
:102E400005462B4B1B6813F0007F06D0FFF79CFB59
:102E5000401B0228F5D9032041E0236AB3F5803FE7
:102E60001AD023494B6823F47413226A606A024320
:102E700013434B601F4B01221A66FFF785FB044684
:102E80001B4B1B6813F0007F0ED1FFF77DFB001B6F
:102E90000228F5D9032022E0154A536823F40033B1
:102EA000A1680B435360DCE7002018E0002016E027
:102EB000012B16D00E4B5B6803F48031226A9142DD
:102EC00011D103F47013626A93420ED1002006E020
:102ED00001207047012002E0012000E0002002B044
:102EE00070BD0120FBE70120F9E70120F7E700BFF3
:102EF000001002400000424286B0164B0FCB0DF18D
:102F0000180C0CE90F0040F20123ADF80430124B0D
:102F10005B6803F00C02082A02D0104806B0704724
:102F2000C3F38342624412F8100C13F4803F0CD0B8
:102F3000094B5B68C3F34043634413F8143C074AEE
:102F400002FB00F0B0FBF3F0E8E7054B03FB00F0F9
:102F5000E4E700BF004D00080010024000127A00B4
:102F600000093D00002800F0A08070B50D46044621
:102F7000524B1B6803F007038B420BD24F4A136876
:102F800023F007030B431360136803F007038B421E
:102F900040F08D80236813F0020F17D013F0040F58
:102FA00004D0474A536843F4E0635360236813F046
:102FB000080F04D0424A536843F460535360404AB8
:102FC000536823F0F003A1680B435360236813F0A8
:102FD000010F31D06368012B20D0022B25D0384A55
:102FE000126812F0020F64D035494A6822F00302D9
:102FF00013434B60FFF7C8FA0646314B5B6803F09A
:103000000C036268B3EB820F16D0FFF7BDFA801B8A
:1030100041F288339842F0D9032045E0284A1268EB
:1030200012F4003FE0D101203EE0254A126812F080
:10303000007FD9D1012037E0204B1B6803F0070344
:10304000AB420AD91D4A136823F007032B431360D0
:10305000136803F00703AB422DD1236813F0040F6C
:1030600006D0174A536823F4E063E1680B435360CA
:10307000236813F0080F07D0114A536823F46053F4
:10308000216943EAC1035360FFF736FF0C4B5B68CD
:10309000C3F303130B4AD35CD8400B4B18600B4BA4
:1030A0001868FFF72DFA002070BD0120704701203D
:1030B000FAE70120F8E70120F6E700BF0020024010
:1030C00000100240E84C000810000020180000200A
:1030D000014B1868704700BF1000002008B5FFF7CB
:1030E000F7FF044B5B68C3F30223034AD35CD84069
:1030F00008BD00BF00100240F84C000808B5FFF7FB
:10310000E7FF044B5B68C3F3C223034AD35CD84098
:1031100008BD00BF00100240F84C000870B582B036
:103120000446036813F0010F36D03F4BDB6913F000
:10313000805F49D13C4BDA6942F08052DA61DB6949
:1031400003F080530193019B0125384B1B6813F456
:10315000807F3BD0344B1B6A13F4407313D06268FA
:1031600002F440729A420ED02F4A136A23F4407040
:103170002F490126C1F840640026C1F8406410625E
:1031800013F0010F36D1284A136A23F440736168A3
:103190000B431362002D3ED1236813F0020F06D0BB
:1031A000214A536823F44043A1680B4353602368CA
:1031B00013F0100F34D01C4A536823F48003E168E5
:1031C0000B43536000202CE00025BEE7174A13682C
:1031D00043F480731360FFF7D7F90646134B1B685F
:1031E00013F4807FB6D1FFF7CFF9801B6428F5D99F
:1031F000032016E0FFF7C8F906460B4B1B6A13F0D5
:10320000020FC0D1FFF7C0F9801B41F2883398420A
:10321000F3D9032005E0D36923F08053D361BBE7E2
:10322000002002B070BD00BF0010024000700040DE
:10323000000042420268D36823F49073D3600268AE
:10324000536923F001035361036B012B05D0202345
:1032500080F83E300023036370470268D36823F090
:103260001003D360F3E790F83D30DBB2212B01D09F
:10327000022070478368B3F5805F17D0036A5A1C39
:1032800002621A7803685A60C38C9BB2013B9BB2FE
:10329000C3844BB90268D36823F08003D36002680B
:1032A000D36843F04003D360002070470369002BCC
:1032B000E4D1036A1B880268C3F308035360036AFE
:1032C00002330362E0E7000010B5044602681369A8
:1032D00023F44053C1680B431361836802691343AD
:1032E00042691A430168CB6823F4B05323F00C03FE
:1032F0001343CB600268536923F4407381690B4325
:1033000053610268134B9A4220D0FFF7E7FE024652
:1033100002EB820202EB820263689B00B2FBF3F2D3
:103320000D48A0FB02314909642303FB11231B0153
:103330003233A0FB03235B0903F0F00202EB01121E
:1033400003F00F03216813448B6010BDFFF7D6FE16
:103350000246DDE7003801401F85EB5158B310B538
:10336000044690F83D300BB3242384F83D302268A6
:10337000D36823F40053D3602046FFF7A5FF2268EB
:10338000136923F4904313612268536923F02A03DD
:1033900053612268D36843F40053D3600020206453
:1033A000202384F83D3084F83E3010BD80F83C3056
:1033B000FFF714F8D8E701207047002830D010B587
:1033C000044690F83D3033B3242384F83D3022681E
:1033D000D36823F40053D3602046FFF775FF2268BB
:1033E000136923F4904313612268536923F0220385
:1033F00053612268536943F0080353612268D3681C
:1034000043F40053D36000202064202384F83D302F
:1034100084F83E3010BD80F83C30FEF7DFFFD3E784
:103420000120704790F83D30DBB2202B19D1D1B18B
:10343000DAB190F83C30012B19D0012380F83C30F0
:1034400001628284C28400230364212280F83D202B
:1034500080F83C300168CA6842F08002CA601846B1
:1034600070470220704701207047012070470220FA
:103470007047704708B50168CA6822F04002CA6008
:10348000202280F83D20FFF7F4FF002008BD7047A0
:1034900008B5406A0023C385C384FFF7F8FF08BD61
:1034A000704790F83E30DBB2222B60D18368B3F5D1
:1034B000805F46D0826AB3F5805F04D0002B4DD187
:1034C0000369002B4AD103685B681370836A013378
:1034D0008362C38D9BB2013B9BB2C385002B48D155
:1034E00000B583B00268D36823F02003D36002687C
:1034F000D36823F48073D3600268536923F0010317
:103500005361202380F83E30036B012B2CD1002324
:1035100003630268D36823F01003D36003681A685A
:1035200012F0100F06D0002201921A6801925B6817
:103530000193019B818DFFF7B3FF002003B05DF87D
:1035400004FB0269002AB5D1826A03685B68C3F391
:1035500008031380836A02338362BAE703685B68F7
:1035600003F07F031370B1E7FEF704FDE5E70220E7
:10357000704700207047000030B583B004460268F1
:103580001368D068516913F00F0505D113F0200FAF
:1035900002D010F0200F19D12DB111F0010119D175
:1035A00010F4907F16D1216B012975D013F0800F94
:1035B00003D010F0800F40F0D78013F0400F03D0FD
:1035C00010F0400F40F0D48003B030BD2046FFF72C
:1035D00068FFF9E713F0010F06D010F4807F03D0E5
:1035E000226C42F00102226413F0040F04D019B1DE
:1035F000226C42F00202226413F0020F04D019B1CF
:10360000226C42F00402226413F0080F07D010F07D
:10361000200F00D119B1226C42F008022264226C02
:10362000002AD1D013F0200F02D010F0200F21D1AA
:1036300023685B6903F04003226C12F0080F00D18D
:1036400023B32046FFF7F6FD23685A6912F0400FB6
:1036500018D05A6922F040025A61A36B73B1464AEE
:103660005A63A06BFFF7AEF80028ADD0A06B436B98
:103670009847A9E72046FFF714FFD9E72046FFF750
:1036800006FFA1E72046FFF702FF9DE72046FFF770
:10369000FEFE0023236497E713F0100F86D010F08E
:1036A000100F83D000230193136801935368019393
:1036B000019B536913F0400F32D0A16B0B685B681C
:1036C0009BB2002B80D0A08D98427FF67DAFE38522
:1036D0008B69202B08D1A18DE38D9BB2C91A89B2C9
:1036E0002046FFF7DDFE6FE7D36823F48073D360D5
:1036F0002268536923F0010353612268536923F060
:1037000040035361202384F83E3000232363226862
:10371000D36823F01003D360A06BFFF731F8DAE72A
:10372000A18DE38D9BB2C91A89B2E38D9BB2002BA8
:103730003FF44AAF00293FF447AFD36823F49073B6
:10374000D3602268536923F001035361202384F876
:103750003E30002323632268D36823F01003D36034
:103760002046FFF79DFE2FE72046FFF77CFD2BE765
:103770002046FFF77FFE27E7913400080346816269
:103780008285C28500201864222283F83E2083F8B7
:103790003C001968CA6842F48072CA6019684A69B4
:1037A00042F001024A611A68D36843F02003D360F3
:1037B000704708B590F83E30DBB2202B0DD171B1C7
:1037C0007AB190F83C30012B0DD0012380F83C30C9
:1037D00000230363FFF7D2FF00E0022008BD0120B1
:1037E000FCE70120FAE70220F8E700000C480D4949
:1037F0000D4A002302E0D458C4500433C4188C424C
:10380000F9D30A4A0A4C002301E013600432A242B1
:10381000FBD3FEF773FE00F00FF8FEF725FD7047AF
:10382000000000204C040020F84D00085004002047
:10383000000E0020FEE7000070B50D4E0D4D761B0A
:10384000B61006D0002455F8043B01349847A64230
:10385000F9D1094E094D01F02DF8761BB61006D0AE
:10386000002455F8043B01349847A642F9D170BDB5
:10387000EC4D0008EC4D0008F44D0008EC4D00083C
:1038800088420DD98B1883420AD900EB020CBAB1D9
:10389000624613F801CD994202F801CDF9D1704783
:1038A0000F2A0ED8034602F1FF3C4AB10CF1010C7D
:1038B000013B8C4411F8012B614503F8012FF9D12C
:1038C000704740EA01039B074FD1A2F1100370B586
:1038D00001F1200C23F00F0501F1100E00F110048E
:1038E000AC441B095EF8105C0EF1100E44F8105C3D
:1038F0005EF81C5C103444F81C5C5EF8185C44F8FC
:10390000185C5EF8145CE64544F8145CEAD10133B7
:1039100012F00C0F01EB031102F00F0400EB031384
:1039200027D08E46043C24F003064FEA940C1E4434
:103930001C1F5EF8045B44F8045FB442F9D10CF13B
:10394000010402F0030203EB840301EB840102F1A2
:10395000FF3C4AB10CF1010C013B8C4411F8012BE6
:10396000614503F8012FF9D170BD034602F1FF3C18
:103970009CE72246EBE700BF830730B548D0541ED2
:10398000002A3FD00346CAB201E0013C3AD303F813
:10399000012B9D07F9D1032C2DD9CDB245EA052580
:1039A0000F2C45EA054536D9A4F1100222F00F0C80
:1039B00003F1200EE6444FEA121C03F1100242E923
:1039C000045542E9025510327245F8D10CF101025A
:1039D00014F00C0F03EB021204F00F0C13D0ACF137
:1039E000040323F003030433134442F8045B9342BB
:1039F000FBD10CF003042CB1CAB21C4403F8012B18
:103A00009C42FBD130BD64461346002CF4D1F9E74B
:103A100003461446BFE71A46A446E0E7024B13B13B
:103A2000024800F01FB8704700000000313A00085B
:103A300038B5084B084D5B1B9C1007D0043B1D4458
:103A4000013C55F804399847002CF9D1BDE83840BD
:103A500000F036BFF84D0008F44D0008704700BF75
:103A6000704700BF002301461A46184600F000B810
:103A70002DE9F047DFF87CA00646DAF8000098460A
:103A80000F469146FFF7EAFF1B4B1B68D3F84841EE
:103A900024B365681F2D26DC5EB96B1C0235DAF88D
:103AA0000000636044F82570FFF7DAFF0020BDE8EE
:103AB000F087012304EB8501C1F88890D4F88821B0
:103AC000AB401A43022EC4F88821C1F80881E4D122
:103AD000D4F88C211343C4F88C31DEE703F5A674C7
:103AE000C3F84841D5E7DAF80000FFF7B9FF4FF017
:103AF000FF30DCE748040020144D0008FEE700BF5B
:103B000003685A004CBF43F0004323F000431844BD
:103B1000704700BF2DE9F84339B34F1E04461546E0
:103B20003E464FF0000808EB060101EBD171491049
:103B300004EBC1094846FFF7E3FF0346C80008301D
:103B40008F4220440BD0AB420BD8FFF7D9FF01388E
:103B5000A84201F10108E6D34846BDE8F883AB422C
:103B6000FAD9884501D04E1EDDE74FF000094846DE
:103B7000BDE8F883012807D0022807D0044B0028AD
:103B80000CBF184600207047024870470248704733
:103B9000554200085D4200086542000830B5244BDC
:103BA000044683B08D1E3BB3284601A9AFF30080C5
:103BB000E8B101992A46FFF7ADFF0146B8B1FFF71A
:103BC0009FFF4B68A064012B2ED0002B27DB081D24
:103BD000FFF796FF0023C4E913030368002B12DBF1
:103BE000FFF78EFF03460020236103B030BD0023A2
:103BF0000920236103B030BD0E4B0F491846C91A86
:103C0000C9100191D6E7C3F30360FFF7B3FF0028A3
:103C1000034614BF00200920236103B030BD0123F7
:103C2000081DC4E91303D8E7002305202361DCE75E
:103C300000000000244D0008EC4D0008036810B59A
:103C4000DA07044606D49B0700F1480009D5FDF7C2
:103C50000DFA2368590709D51A070ED5DB0613D5C7
:103C600010BDFDF7FBF923685907F5D404F1D00026
:103C7000FDF704FA23681A07F0D404F5A870FDF7DD
:103C800005FA2368DB06EBD404F5E870BDE81040C4
:103C9000FDF740BA0346006800B11844704700BF02
:103CA000704700BF70B504460E462046316CFFF7E2
:103CB00075FF054698B9D6F840C032462146012026
:103CC0002369C4F814C098470828EED0072806D105
:103CD0002846316CFFF7E4FF301DFDF7B3F900F023
:103CE0008DFD00BF2DE9F0474FF0000AADF5727D64
:103CF0000DF10C0E01F1040CC768D0F818800646CF
:103D00001446BCE80F00AEE80F00BCE80F00AEE8B8
:103D10000F00BCE80F00AEE80F009CE80F0002ADFA
:103D20008EE80F00C5F800A021E02B6C4FF4F07274
:103D3000294673617AA8FDF75BFA3146504633692C
:103D40007AAA9847889C82466C6433463246494634
:103D50000120CDE90058B8470446F0B94FF4F0729D
:103D600028467AA9FDF744FABAF1080F1BD130466C
:103D7000296CFFF713FF04F109095FFA89FA044679
:103D80000028D2D0A96B3346696432460120CDE9C0
:103D900000584AF01001B84700B1092420460DF53B
:103DA000727DBDE8F087BAF1070FF6D12046296C85
:103DB000FFF776FF03A8FDF745F900BFF0B54FF018
:103DC000FF37CB6BF9B00B6401AC01F1040C0E466C
:103DD0000546BCE80F000FC4BCE80F000FC4BCE8E8
:103DE0000F000FC49CE80F0084E80F00009706E066
:103DF0006A4629462B6998470828044608D1284670
:103E00001099FFF7CBFE0028F2D0092079B0F0BD61
:103E10006846FFF713FF062CF7D131462846FFF717
:103E200041FF00BF10B414468461DC6BC160002206
:103E30001C64194610BCFFF755BF00BF70B543693D
:103E4000C6680B64AEB90A46036904460D460146CE
:103E500002209847072805D008280FD12946204678
:103E6000FFF720FF3046296CFFF71AFF281DFDF7EA
:103E7000E9F80122FFF736FF00F0C0FC00F0BEFCBD
:103E8000C26832B1D1F83CC00022C1F840C0FFF78F
:103E900029BFFFF793BF00BF012912D009D873B91A
:103EA0000F2A0CD800EB820042681846009B1A606B
:103EB00070470339012994BF012002207047022076
:103EC00070470846704700BF002300B585B00A461A
:103ED00003A900911946FFF7DFFF039805B05DF8CD
:103EE00004FB00BF012912D009D873B90F2A0CD8DE
:103EF000009900EB82020968184651607047033947
:103F0000012994BF01200220704702207047084613
:103F1000704700BF002310B584B003AC0392009437
:103F20000A461946FFF7DEFF04B010BD70B54FF02A
:103F3000FF36D36BADF50E7D13640DF15C0E02F10F
:103F4000040C05460C46BCE80F00AEE80F00BCE8C8
:103F50000F00AEE80F00BCE80F00AEE80F009CE8D1
:103F60000F008EE80F00169612E00C2116A86A4684
:103F7000FFF7D0FF214616A8A84778B96946082060
:103F8000049B16AA98470528064608D0092805D09C
:103F900068462699FFF702FE0028E6D0092616A8F3
:103FA000FFF74CFE30460DF50E7D70BD2DE9F04F4C
:103FB0001E46CC6C89B054F8043B0D46174600F001
:103FC00003080694002E79D002228DF81C201A0CCA
:103FD0008DF81D201B04D2B2059304EB82042B6DD7
:103FE000B8F1020F08BFAC6B13F001030CD03846D8
:103FF00005A900F091FA18B9082009B0BDE8F08FC2
:10400000092009B0BDE8F08FD4F800A0BAF1000F84
:10401000EDD0019300F008030293022E4AD0B4F8C9
:1040200000A0B4F802900434AA6C0F21384629F09D
:10403000010B9344FFF748FF834539D82AF001026A
:104040005A44824294BF002001204FEA490303F002
:1040500002030AF0010A43EA0A03012B49D0022BAA
:1040600032D0002BCCD1B8F1000F02D0002840F0A4
:10407000CE800434D4F800A0BAF1000FCDD1384678
:1040800005A900F049FA0028BAD1019B002BB3D052
:104090000F213846FFF718FF0E2102463846FFF77A
:1040A00039FF38460F216A4AFFF734FF0720A8E797
:1040B0000020CAE7D4F804900834B5E71B02059342
:1040C0000323ADF81C308AE7236823F0004BB8F1D6
:1040D000000F45D128B1029A002A5CD0BBF1000F35
:1040E00074D0002B00DA04340BF1010B04EB8B04C9
:1040F000C0E7B8F1000F19D1B0B163682268991C0C
:104100004FEAD2723FF47CAF05F1580101330491BC
:1041100000F09180201DFFF7BDFD04AB014628464D
:10412000AFF3008000285CD10834A3E70D213846A6
:10413000D5F82090FFF7C8FE8145F5D1AB6A9C42C7
:10414000F2D12046FFF7DCFC0F2102463846FFF78C
:10415000E1FE38462A460021FFF7DCFE072050E743
:104160000D213846D5F82090FFF7AEFE814501D0ED
:104170002368B6E7AB6A9C42FAD104230022C5E962
:104180000B23E318C5F828B06B632368002B5ADBB8
:1041900001230193A8E705F15803CDF80C8091465F
:1041A000B04604F1040A1E460EE050460496FFF79E
:1041B00071FD0022014604AB284609F101090AF10C
:1041C000040AAFF30080E8B9D945EED10D21384695
:1041D000FFF77AFE0346049A0620C5E909242B62FC
:1041E0000FE781460D213846FFF76EFEB9F1020F49
:1041F000286225D12B46049A43F82C2F6B620620A7
:10420000AC62FEE646462368DDF80C8069E720468E
:10421000FFF776FC02460434AC6328461446AFF33D
:10422000008000283FF4ECAE384622460F21FFF70D
:1042300071FE0720E5E60D213846FFF745FE2862AE
:10424000049B6B62DBE70BF1010004EB800079E774
:10425000000000000023FFF7A9BE00BF0123FFF705
:10426000A5BE00BF0223FFF7A1BE00BF2DE9F043AA
:10427000064615461C46C3B0042900F2B880DFE8A4
:1042800001F09C56B62D0300002C40F0B080102A9F
:1042900000F2AD800368D80600F1F18020AF384607
:1042A000FCF742FF012438460023B16B04FA03F205
:1042B0002A4203F1010305D00A4652F804CB114605
:1042C000C0F800C0042B00F10400EFD13846B16300
:1042D000FCF720FF002043B0BDE8F083032C40F042
:1042E000868094B204EB1243102B4FEA12457ED81D
:1042F00003681F0700F1CB8020AF3846FCF7E8FECB
:10430000B26B07EBC50154B10B4601EBC401D01AE7
:10431000E4001D5843F8045B8B42FAD1224438462E
:10432000B263FCF7B3FE002043B0BDE8F083012C7C
:104330004FEA124895B256D0052C58D108EB050922
:10434000B9F1200F53D8B8F10F0F73D9A946002D3A
:1043500040F08480B36B65B320AF4FF0000907EBEA
:10436000C807043F03EBC50553F8041BAB4247F8ED
:10437000041FF9D1B9F1000F0FD06F464146102943
:1043800038BF102107EBC101843903EBC90553F88D
:10439000040BAB4241F8040FF9D1012C7FD0B8F1E6
:1043A0000F0FB56342D9B9F1000F02D06846FCF790
:1043B00065FE002043B0BDE8F083C4B92346012464
:1043C000826B371DA8B204FA03F101421CBF52F8F8
:1043D000041B47F823100133102BF4D115F40050BF
:1043E000E7D1B26304E008EB0503102B03D90220E8
:1043F00043B0BDE8F083B8F10F0FF8D83368DA079F
:1044000006D5304623F0030340F8483BFCF72AFE6C
:1044100020AF3846FCF726FEB36B002D9DD11D461C
:1044200004353846B563FCF719FEC2E720A8FCF74F
:104430001DFEB8E7B9F1100F3FD9A9F11009336893
:10444000D90708D5304623F0010343F0020340F8B2
:10445000483BFCF70FFEB9F1000F31D033685A0723
:104460001FD4B8F10F0F24D96F46C8F11005384694
:10447000FCF708FE002DB36B80DD20AF6FE723F063
:104480001003336006F5E870FCF74EFE06E723F0F4
:104490000803036000F5A870FCF71AFE2CE720AFB4
:1044A000BEE7304623F0040340F8D03BFCF7EAFDBA
:1044B000D7E720A8FCF7DEFDD6E74FF00009BEE7FE
:1044C000B8F10F0F3FF646AF20AF3846FCF7D2FDEC
:1044D000B36B002D7FF441AF3846FCF7C7FD68E7AA
:1044E000027A03467AB9427AA2B14FF0030C4168CE
:1044F000013A427208680A1D5A60020283F808C035
:10450000000E1A6070470068013A1A7202021A60BF
:10451000000E7047B02070472DE9F0434FF00008BF
:1045200005460E4685B03046FFF7DAFFB028044650
:1045300000F0BA80070620D500F0F003802B4DD0A4
:10454000902B36D0A02B60D0B02B73D0C02B00F0B6
:104550008A8000F0F803D02B0BD100F00702013263
:1045600005230121284642F40022FFF77FFE0028A0
:10457000D9D0092005B0BDE8F0838300DBB21F1D50
:1045800000230DF10C0919460D222846CDF80090A4
:10459000FFF782FC039B60064CBFDF1BFF18002364
:1045A0000D2228461946CDF800900397FFF79AFC94
:1045B000B9E700F00D030D2BDBD0002303AF194644
:1045C00000F00F0200972846FFF766FC00230D223B
:1045D000284619460097FFF785FCA4E73046FFF709
:1045E0007FFF24022043B0F5004FC2D00023040116
:1045F00019462846A2B2FFF739FE0028B9D114F4B3
:10460000004F18BF4FF001088DE7C3434FF47F629E
:1046100003F007031A410023010702F47F6248BF39
:1046200042F4804228461946FFF720FE00283FF456
:104630007AAF9EE7B1283CD0B22800F0B080B32812
:104640004AD000F0FC03B42B93D0012300F0070202
:104650001A442846194642F40022FFF707FE0028B4
:104660003FF461AF85E7C6284FD0C72861D000F07E
:10467000F803C02B70D0C8287CD0C9287FF479AF4C
:104680003046FFF72DFF052302460121284614037B
:1046900002F00F0204F470240A442243FFF7E6FDFF
:1046A00000283FF440AF64E7B8F1000F1CD00020B1
:1046B00060E73046FFF714FF024600283FF459AF89
:1046C00010F0F0037FF455AF19462846FFF7CEFDF2
:1046D00000283FF428AF4CE73046FFF701FF0123E5
:1046E000024619462846D2E703AC43460E2241460D
:1046F00028460094FFF7D0FB43460F222846414648
:104700000094FFF7EFFB404634E73046FFF7E8FE42
:1047100002460323140302F00F0204F47024013252
:10472000284619462243FFF7A1FD00283FF4FBAEBF
:104730001FE73046FFF7D4FE024600283FF419AFCA
:1047400010F0F0037FF415AF04212846FFF78EFD2B
:1047500000283FF4E8AE0CE7032300F00F0201321B
:104760002846194642F42022FFF780FD00283FF436
:10477000DAAEFEE63046FFF7B3FE0246012102F054
:10478000F00402F00F0210340A440523284642EADE
:104790000432FFF76BFD00283FF4C5AEE9E60023C5
:1047A0000DF10C090D2219462846CDF80090FFF7AF
:1047B00073FB3046FFF794FE02064FF002040CD55F
:1047C000039B00F07F00A040184403903046FFF7A1
:1047D00087FE030604F10704F2D4039B00F07F0276
:1047E000A24003F501731A440023039228460D22C8
:1047F0001946CDF80090FFF775FB94E6062008B542
:1048000000F004F80120FFF779F900BF38B5154B27
:104810001F281D6820D8D5F8DC22044662B152F862
:1048200020304BB1012B15D0591C0FD0002542F878
:1048300020509847284638BD284600F029F82246DF
:1048400001462846BDE8384000F00EB81623012086
:104850002B6038BD002038BD16234FF0FF302B6091
:1048600038BD00BF1C00002070B50026074D04466F
:10487000084611462E6000F015F8431C00D070BDAC
:104880002B68002BFBD0236070BD00BFFC0D002007
:1048900000F000B85822024B4FF0FF301A6070470A
:1048A000FC0D00205822024B4FF0FF301A60704779
:1048B000FC0D0020F8B500BFF8BC08BC9E46704750
:0C48C000F8B500BFF8BC08BC9E4670476D
:1048CC00984C4B41B8AF894071AC4B408AB03140E9
:1048DC00B6842440029A1C409B5517408195134086
:1048EC00E3C7104031990E402FDD0C4076710B4020
:1048FC00FE430A4067440940DC68084071AC07403D
:10490C00F706074025750640B6F3054006810540BD
:10491C002B180540C7BA044095650440F0160440B6
:10492C00D9CE0340508D0340B1500340FC180340D6
:10493C008FE402400BB5024029ED014029ED014006
:10494C0029ED014029ED014029ED014029ED0140FF
:10495C0029ED014029ED014029ED0140B4590140F8
:10496C00B4590140B4590140B4590140B459014003
:10497C0004E7004004E7004004E7004004E700407F
:10498C0004E70040E78C0040E78C0040E78C0040D7
:10499C00E78C0040E78C0040894100408941004091
:1049AC00894100408941004089410040EA040040AF
:1049BC00EA040040EA040040EA040040EA04004033
:1049CC00EA040040EA040040EA040040EA04004023
:1049DC00EA0400408048FF3F8048FF3F8048FF3F8B
:1049EC008048FF3F8048FF3F8048FF3F8048FF3FA3
:1049FC008048FF3F8048FF3F8048FF3F99BBFE3F08
:104A0C0099BBFE3F99BBFE3F99BBFE3F99BBFE3F56
:104A1C0099BBFE3F99BBFE3F99BBFE3F99BBFE3F46
:104A2C0099BBFE3F304CFE3F304CFE3F304CFE3FBE
:104A3C00304CFE3F304CFE3F304CFE3F304CFE3F86
:104A4C00304CFE3F304CFE3F304CFE3FB6F3FD3F4A
:104A5C00B6F3FD3FB6F3FD3FB6F3FD3FB6F3FD3FB6
:104A6C00B6F3FD3FB6F3FD3FB6F3FD3FB6F3FD3FA6
:104A7C00B6F3FD3F9FABFD3F9FABFD3F9FABFD3FB3
:104A8C009FABFD3F9FABFD3F9FABFD3F9FABFD3F02
:104A9C009FABFD3F9FABFD3F9FABFD3F5D6DFD3F72
:104AAC000000803F06050504040404040207060503
:104ABC00050404040403080706050404040403099C
:104ACC000807060504040404090807060504040481
:104ADC00040A090807060505050500000000C1C009
:104AEC0081C1400101C3C003800241C201C6C0069E
:104AFC00800741C70005C1C581C4400401CCC00C6E
:104B0C00800D41CD000FC1CF81CE400E000AC1CA2D
:104B1C0081CB400B01C9C009800841C801D8C0181D
:104B2C00801941D9001BC1DB81DA401A001EC1DE9D
:104B3C0081DF401F01DDC01D801C41DC0014C1D48D
:104B4C0081D5401501D7C017801641D601D2C012AD
:104B5C00801341D30011C1D181D0401001F0C0307D
:104B6C00803141F10033C1F381F240320036C1F69D
:104B7C0081F7403701F5C035803441F4003CC1FC6D
:104B8C0081FD403D01FFC03F803E41FE01FAC03A2D
:104B9C00803B41FB0039C1F981F840380028C1E85D
:104BAC0081E9402901EBC02B802A41EA01EEC02E9D
:104BBC00802F41EF002DC1ED81EC402C01E4C0248D
:104BCC00802541E50027C1E781E640260022C1E2AD
:104BDC0081E3402301E1C021802041E001A0C060BD
:104BEC00806141A10063C1A381A240620066C1A69D
:104BFC0081A7406701A5C065806441A4006CC1AC6D
:104C0C0081AD406D01AFC06F806E41AE01AAC06A2C
:104C1C00806B41AB0069C1A981A840680078C1B81C
:104C2C0081B9407901BBC07B807A41BA01BEC07E9C
:104C3C00807F41BF007DC1BD81BC407C01B4C0748C
:104C4C00807541B50077C1B781B640760072C1B2AC
:104C5C0081B3407301B1C071807041B00050C190FC
:104C6C00819140510193C053805241920196C0569C
:104C7C00805741970055C19581944054019CC05C6C
:104C8C00805D419D005FC19F819E405E005AC19A2C
:104C9C00819B405B0199C059805841980188C0485C
:104CAC0080494189004BC18B818A404A004EC18E9C
:104CBC00818F404F018DC04D804C418C0044C1848C
:104CCC00818540450187C047804641860182C042AC
:104CDC00804341830041C18181804040000000003D
:104CEC000000000001020304060708090000000090
:104CFC000102030402030405060708090A0B0C0D44
:0C4D0C000E0F101000000000200000201E
:0C4D180008B10181B0B000840000000070
:104D240014EBFF7FB0B0AA8054EBFF7F01000000BA
:104D3400FCECFF7FA908B18020EDFF7F010000009B
:104D44002CEDFF7FB0B0AE80B0EDFF7F010000001E
:104D540048EEFF7FB0A90280E0EEFF7FB0B0A880EC
:104D640030EFFF7F0100000038EFFF7FB0B0AA8072
:104D740070EFFF7FAE71B28040F0FF7FAB3F3880B1
:104D8400A0F0FF7F01000000B0F0FF7FB0B0AA8068
:104D9400ECF0FF7F0100000090F1FF7FAA0DB280CC
:104DA40008F2FF7FB0AF0880A8F4FF7F0100000085
:104DB400B8F4FF7FAD3F028024F7FF7F01000000BD
:104DC40054F7FF7FB0AD048030FAFF7F48FFFF7FC8
:104DD40038FAFF7FA908B1808CFAFF7FB0B0AA80AF
:084DE400ACFAFF7F01000000A2
:084DEC001D3A00080113000844
:044DF400DD120008C4
:104DF8006FD8B63A6005002065000000B80C0020A6
:104E08000024F40001000000100000002000002031
:104E1800000000000C03002074030020DC030020C5
:104E2800000000000000000000000000000000007A
:104E3800000000000000000000000000000000006A
:104E4800000000000000000000000000000000005A
:104E5800000000000000000000000000000000004A
:104E6800000000000000000000000000000000003A
:104E7800000000000000000000000000000000002A
:104E8800000000000000000000000000000000001A
:104E9800000000000000000000000000000000000A
:104EA80000000000000000000000000000000000FA
:104EB80000000000000000000100000000000000E9
:104EC8000E33CDAB34126DE6ECDE05000B000000AE
:104ED80000000000000000000000000000000000CA
:104EE80000000000000000000000000000000000BA
:104EF80000000000000000000000000000000000AA
:104F08000000000000000000000000000000000099
:0C5238000000000000000000F80D002045
:04000005080037EDCB
:00000001FF
